{
  "contractName": "YieldContract",
  "abi": [
    {
      "inputs": [
        {
          "internalType": "address",
          "name": "_mxxAddress",
          "type": "address"
        },
        {
          "internalType": "uint256",
          "name": "_mxxmFactor",
          "type": "uint256"
        }
      ],
      "stateMutability": "nonpayable",
      "type": "constructor"
    },
    {
      "anonymous": false,
      "inputs": [
        {
          "indexed": true,
          "internalType": "address",
          "name": "previousOwner",
          "type": "address"
        },
        {
          "indexed": true,
          "internalType": "address",
          "name": "newOwner",
          "type": "address"
        }
      ],
      "name": "OwnershipTransferred",
      "type": "event"
    },
    {
      "anonymous": false,
      "inputs": [
        {
          "indexed": false,
          "internalType": "address",
          "name": "contractOwner",
          "type": "address"
        },
        {
          "indexed": false,
          "internalType": "address",
          "name": "tokenAddress",
          "type": "address"
        },
        {
          "indexed": false,
          "internalType": "uint256",
          "name": "collateral",
          "type": "uint256"
        },
        {
          "indexed": false,
          "internalType": "uint256",
          "name": "startTime",
          "type": "uint256"
        },
        {
          "indexed": false,
          "internalType": "uint256",
          "name": "endTime",
          "type": "uint256"
        },
        {
          "indexed": false,
          "internalType": "uint256",
          "name": "interest",
          "type": "uint256"
        },
        {
          "indexed": false,
          "internalType": "uint16",
          "name": "tenure",
          "type": "uint16"
        },
        {
          "indexed": false,
          "internalType": "uint256",
          "name": "mxxToBeMinted",
          "type": "uint256"
        },
        {
          "indexed": false,
          "internalType": "uint256",
          "name": "mxxToBeBurnt",
          "type": "uint256"
        },
        {
          "indexed": false,
          "internalType": "string",
          "name": "contractStatus",
          "type": "string"
        }
      ],
      "name": "yieldContractStatus",
      "type": "event"
    },
    {
      "inputs": [
        {
          "internalType": "address",
          "name": "",
          "type": "address"
        }
      ],
      "name": "ERC20Map",
      "outputs": [
        {
          "internalType": "string",
          "name": "symbol",
          "type": "string"
        },
        {
          "internalType": "bool",
          "name": "isValid",
          "type": "bool"
        },
        {
          "internalType": "uint64",
          "name": "noContracts",
          "type": "uint64"
        },
        {
          "internalType": "uint256",
          "name": "mFactor",
          "type": "uint256"
        }
      ],
      "stateMutability": "view",
      "type": "function"
    },
    {
      "inputs": [
        {
          "internalType": "uint256",
          "name": "",
          "type": "uint256"
        }
      ],
      "name": "allContracts",
      "outputs": [
        {
          "internalType": "bytes32",
          "name": "",
          "type": "bytes32"
        }
      ],
      "stateMutability": "view",
      "type": "function"
    },
    {
      "inputs": [],
      "name": "burnAddress",
      "outputs": [
        {
          "internalType": "address",
          "name": "",
          "type": "address"
        }
      ],
      "stateMutability": "view",
      "type": "function"
    },
    {
      "inputs": [],
      "name": "contractFee",
      "outputs": [
        {
          "internalType": "uint256",
          "name": "",
          "type": "uint256"
        }
      ],
      "stateMutability": "view",
      "type": "function"
    },
    {
      "inputs": [
        {
          "internalType": "bytes32",
          "name": "",
          "type": "bytes32"
        }
      ],
      "name": "contractMap",
      "outputs": [
        {
          "internalType": "address",
          "name": "contractOwner",
          "type": "address"
        },
        {
          "internalType": "address",
          "name": "tokenAddress",
          "type": "address"
        },
        {
          "internalType": "uint256",
          "name": "collateral",
          "type": "uint256"
        },
        {
          "internalType": "uint256",
          "name": "startTime",
          "type": "uint256"
        },
        {
          "internalType": "uint256",
          "name": "endTime",
          "type": "uint256"
        },
        {
          "internalType": "uint256",
          "name": "interest",
          "type": "uint256"
        },
        {
          "internalType": "uint16",
          "name": "tenure",
          "type": "uint16"
        },
        {
          "internalType": "uint256",
          "name": "mxxToBeMinted",
          "type": "uint256"
        },
        {
          "internalType": "uint256",
          "name": "mxxToBeBurnt",
          "type": "uint256"
        },
        {
          "internalType": "enum YieldContract.Status",
          "name": "contractStatus",
          "type": "uint8"
        }
      ],
      "stateMutability": "view",
      "type": "function"
    },
    {
      "inputs": [],
      "name": "maxEarlyRedeemFee",
      "outputs": [
        {
          "internalType": "uint256",
          "name": "",
          "type": "uint256"
        }
      ],
      "stateMutability": "view",
      "type": "function"
    },
    {
      "inputs": [],
      "name": "minEarlyRedeemFee",
      "outputs": [
        {
          "internalType": "uint256",
          "name": "",
          "type": "uint256"
        }
      ],
      "stateMutability": "view",
      "type": "function"
    },
    {
      "inputs": [],
      "name": "mxxAddress",
      "outputs": [
        {
          "internalType": "address",
          "name": "",
          "type": "address"
        }
      ],
      "stateMutability": "view",
      "type": "function"
    },
    {
      "inputs": [],
      "name": "mxxMintedFromContract",
      "outputs": [
        {
          "internalType": "uint256",
          "name": "",
          "type": "uint256"
        }
      ],
      "stateMutability": "view",
      "type": "function"
    },
    {
      "inputs": [],
      "name": "owner",
      "outputs": [
        {
          "internalType": "address",
          "name": "",
          "type": "address"
        }
      ],
      "stateMutability": "view",
      "type": "function"
    },
    {
      "inputs": [],
      "name": "renounceOwnership",
      "outputs": [],
      "stateMutability": "nonpayable",
      "type": "function"
    },
    {
      "inputs": [
        {
          "internalType": "uint16",
          "name": "",
          "type": "uint16"
        }
      ],
      "name": "tenureApyMap",
      "outputs": [
        {
          "internalType": "uint256",
          "name": "",
          "type": "uint256"
        }
      ],
      "stateMutability": "view",
      "type": "function"
    },
    {
      "inputs": [],
      "name": "totalAllocatedMxx",
      "outputs": [
        {
          "internalType": "uint256",
          "name": "",
          "type": "uint256"
        }
      ],
      "stateMutability": "view",
      "type": "function"
    },
    {
      "inputs": [
        {
          "internalType": "address",
          "name": "newOwner",
          "type": "address"
        }
      ],
      "name": "transferOwnership",
      "outputs": [],
      "stateMutability": "nonpayable",
      "type": "function"
    },
    {
      "inputs": [
        {
          "internalType": "uint256",
          "name": "",
          "type": "uint256"
        }
      ],
      "name": "validERC20",
      "outputs": [
        {
          "internalType": "address",
          "name": "",
          "type": "address"
        }
      ],
      "stateMutability": "view",
      "type": "function"
    },
    {
      "inputs": [
        {
          "internalType": "uint16",
          "name": "_tenure",
          "type": "uint16"
        },
        {
          "internalType": "uint256",
          "name": "_interestRate",
          "type": "uint256"
        }
      ],
      "name": "setInterest",
      "outputs": [
        {
          "internalType": "bool",
          "name": "",
          "type": "bool"
        }
      ],
      "stateMutability": "nonpayable",
      "type": "function"
    },
    {
      "inputs": [
        {
          "internalType": "enum YieldContract.paramType",
          "name": "_parameter",
          "type": "uint8"
        },
        {
          "internalType": "uint256",
          "name": "_value",
          "type": "uint256"
        }
      ],
      "name": "setParamType",
      "outputs": [
        {
          "internalType": "bool",
          "name": "",
          "type": "bool"
        }
      ],
      "stateMutability": "nonpayable",
      "type": "function"
    },
    {
      "inputs": [
        {
          "internalType": "address",
          "name": "_ERC20Address",
          "type": "address"
        },
        {
          "internalType": "uint256",
          "name": "_mFactor",
          "type": "uint256"
        }
      ],
      "name": "addValidERC20",
      "outputs": [
        {
          "internalType": "bool",
          "name": "",
          "type": "bool"
        }
      ],
      "stateMutability": "nonpayable",
      "type": "function"
    },
    {
      "inputs": [
        {
          "internalType": "address[]",
          "name": "_ERC20AddressList",
          "type": "address[]"
        },
        {
          "internalType": "uint256[]",
          "name": "_mFactorList",
          "type": "uint256[]"
        }
      ],
      "name": "addValidERC20List",
      "outputs": [
        {
          "internalType": "bool",
          "name": "",
          "type": "bool"
        }
      ],
      "stateMutability": "nonpayable",
      "type": "function"
    },
    {
      "inputs": [
        {
          "internalType": "address",
          "name": "_ERC20Address",
          "type": "address"
        }
      ],
      "name": "removeValidERC20",
      "outputs": [
        {
          "internalType": "bool",
          "name": "",
          "type": "bool"
        }
      ],
      "stateMutability": "nonpayable",
      "type": "function"
    },
    {
      "inputs": [
        {
          "internalType": "address",
          "name": "_ERC20Address",
          "type": "address"
        }
      ],
      "name": "delistValidERC20",
      "outputs": [
        {
          "internalType": "bool",
          "name": "",
          "type": "bool"
        }
      ],
      "stateMutability": "nonpayable",
      "type": "function"
    },
    {
      "inputs": [
        {
          "internalType": "address",
          "name": "_ERC20Address",
          "type": "address"
        }
      ],
      "name": "undelistERC20",
      "outputs": [
        {
          "internalType": "bool",
          "name": "",
          "type": "bool"
        }
      ],
      "stateMutability": "nonpayable",
      "type": "function"
    },
    {
      "inputs": [
        {
          "internalType": "address",
          "name": "_ERC20Address",
          "type": "address"
        },
        {
          "internalType": "uint256",
          "name": "_mFactor",
          "type": "uint256"
        }
      ],
      "name": "updateMFactor",
      "outputs": [
        {
          "internalType": "bool",
          "name": "",
          "type": "bool"
        }
      ],
      "stateMutability": "nonpayable",
      "type": "function"
    },
    {
      "inputs": [
        {
          "internalType": "address[]",
          "name": "_ERC20AddressList",
          "type": "address[]"
        },
        {
          "internalType": "uint256[]",
          "name": "_mFactorList",
          "type": "uint256[]"
        }
      ],
      "name": "updateMFactorList",
      "outputs": [
        {
          "internalType": "bool",
          "name": "",
          "type": "bool"
        }
      ],
      "stateMutability": "nonpayable",
      "type": "function"
    },
    {
      "inputs": [],
      "name": "getNoOfValidTokens",
      "outputs": [
        {
          "internalType": "uint256",
          "name": "",
          "type": "uint256"
        }
      ],
      "stateMutability": "view",
      "type": "function"
    },
    {
      "inputs": [
        {
          "internalType": "uint32",
          "name": "_start",
          "type": "uint32"
        },
        {
          "internalType": "uint32",
          "name": "_end",
          "type": "uint32"
        }
      ],
      "name": "getSubsetValidERC20",
      "outputs": [
        {
          "internalType": "address[]",
          "name": "",
          "type": "address[]"
        }
      ],
      "stateMutability": "view",
      "type": "function"
    },
    {
      "inputs": [
        {
          "internalType": "address",
          "name": "_ERC20Address",
          "type": "address"
        },
        {
          "internalType": "uint256",
          "name": "_collateral",
          "type": "uint256"
        },
        {
          "internalType": "uint16",
          "name": "_tenure",
          "type": "uint16"
        }
      ],
      "name": "createYieldContract",
      "outputs": [
        {
          "internalType": "bytes32",
          "name": "",
          "type": "bytes32"
        }
      ],
      "stateMutability": "payable",
      "type": "function"
    },
    {
      "inputs": [
        {
          "internalType": "bytes32",
          "name": "_contractId",
          "type": "bytes32"
        }
      ],
      "name": "earlyRedeemContract",
      "outputs": [
        {
          "internalType": "bool",
          "name": "",
          "type": "bool"
        }
      ],
      "stateMutability": "nonpayable",
      "type": "function"
    },
    {
      "inputs": [
        {
          "internalType": "bytes32",
          "name": "_contractId",
          "type": "bytes32"
        }
      ],
      "name": "acquireYieldContract",
      "outputs": [
        {
          "internalType": "bool",
          "name": "",
          "type": "bool"
        }
      ],
      "stateMutability": "payable",
      "type": "function"
    },
    {
      "inputs": [
        {
          "internalType": "bytes32",
          "name": "_contractId",
          "type": "bytes32"
        }
      ],
      "name": "claimYieldContract",
      "outputs": [
        {
          "internalType": "bool",
          "name": "",
          "type": "bool"
        }
      ],
      "stateMutability": "nonpayable",
      "type": "function"
    },
    {
      "inputs": [
        {
          "internalType": "uint32",
          "name": "_start",
          "type": "uint32"
        },
        {
          "internalType": "uint32",
          "name": "_end",
          "type": "uint32"
        }
      ],
      "name": "getSubsetYieldContracts",
      "outputs": [
        {
          "internalType": "bytes32[]",
          "name": "",
          "type": "bytes32[]"
        }
      ],
      "stateMutability": "view",
      "type": "function"
    },
    {
      "inputs": [
        {
          "internalType": "uint256",
          "name": "_amount",
          "type": "uint256"
        }
      ],
      "name": "withdrawMXX",
      "outputs": [
        {
          "internalType": "bool",
          "name": "",
          "type": "bool"
        }
      ],
      "stateMutability": "nonpayable",
      "type": "function"
    }
  ],
  "bytecode": "0x60806040523480156200001157600080fd5b5060405162006bad38038062006bad833981810160405260408110156200003757600080fd5b810190808051906020019092919080519060200190929190505050600062000064620002d860201b60201c565b9050806000806101000a81548173ffffffffffffffffffffffffffffffffffffffff021916908373ffffffffffffffffffffffffffffffffffffffff1602179055508073ffffffffffffffffffffffffffffffffffffffff16600073ffffffffffffffffffffffffffffffffffffffff167f8be0079c531659141344cd1fd0a4f28419497f9722a3daafe3b4186f6b6457e060405160405180910390a35060018081905550620001236032612710620002e060201b620053e31760201c565b60066000605a61ffff16815260200190815260200160002081905550620001596064612710620002e060201b620053e31760201c565b6006600060b461ffff168152602001908152602001600020819055506200019061012c612710620002e060201b620053e31760201c565b6006600061010e61ffff16815260200190815260200160002081905550620001c7600a612710620002e060201b620053e31760201c565b600781905550620001ec633b9aca006305f5e100620002e060201b620053e31760201c565b600a819055506200020c6005612710620002e060201b620053e31760201c565b600c819055506200022c6032612710620002e060201b620053e31760201c565b600d819055506000600b819055506000600960006101000a81548173ffffffffffffffffffffffffffffffffffffffff021916908373ffffffffffffffffffffffffffffffffffffffff16021790555081600860006101000a81548173ffffffffffffffffffffffffffffffffffffffff021916908373ffffffffffffffffffffffffffffffffffffffff160217905550620002cf82826200036b60201b60201c565b50505062000b4c565b600033905090565b600080831415620002f5576000905062000365565b60008284029050828482816200030757fe5b041462000360576040517f08c379a000000000000000000000000000000000000000000000000000000000815260040180806020018281038252602181526020018062006b3b6021913960400191505060405180910390fd5b809150505b92915050565b60006200037d620002d860201b60201c565b73ffffffffffffffffffffffffffffffffffffffff1660008054906101000a900473ffffffffffffffffffffffffffffffffffffffff1673ffffffffffffffffffffffffffffffffffffffff16146200043e576040517f08c379a00000000000000000000000000000000000000000000000000000000081526004018080602001828103825260208152602001807f4f776e61626c653a2063616c6c6572206973206e6f7420746865206f776e657281525060200191505060405180910390fd5b600073ffffffffffffffffffffffffffffffffffffffff168373ffffffffffffffffffffffffffffffffffffffff1614806200048c57506200048b8362000a5a60201b620054691760201c565b5b620004e3576040517f08c379a000000000000000000000000000000000000000000000000000000000815260040180806020018281038252602781526020018062006b866027913960400191505060405180910390fd5b6000600360008573ffffffffffffffffffffffffffffffffffffffff1673ffffffffffffffffffffffffffffffffffffffff16815260200190815260200160002060010160019054906101000a900467ffffffffffffffff1667ffffffffffffffff1614620005ba576040517f08c379a000000000000000000000000000000000000000000000000000000000815260040180806020018281038252601c8152602001807f546f6b656e20686173206578697374696e6720636f6e7472616374730000000081525060200191505060405180910390fd5b600360008473ffffffffffffffffffffffffffffffffffffffff1673ffffffffffffffffffffffffffffffffffffffff16815260200190815260200160002060010160009054906101000a900460ff161562000662576040517f08c379a000000000000000000000000000000000000000000000000000000000815260040180806020018281038252602a81526020018062006b5c602a913960400191505060405180910390fd5b600073ffffffffffffffffffffffffffffffffffffffff168373ffffffffffffffffffffffffffffffffffffffff161415620007bc5760405180608001604052806040518060400160405280600381526020017f45544800000000000000000000000000000000000000000000000000000000008152508152602001600115158152602001600067ffffffffffffffff16815260200183815250600360008573ffffffffffffffffffffffffffffffffffffffff1673ffffffffffffffffffffffffffffffffffffffff16815260200190815260200160002060008201518160000190805190602001906200075992919062000aa6565b5060208201518160010160006101000a81548160ff02191690831515021790555060408201518160010160016101000a81548167ffffffffffffffff021916908367ffffffffffffffff16021790555060608201518160020155905050620009ed565b60405180608001604052808473ffffffffffffffffffffffffffffffffffffffff166395d89b416040518163ffffffff1660e01b815260040160006040518083038186803b1580156200080e57600080fd5b505afa15801562000823573d6000803e3d6000fd5b505050506040513d6000823e3d601f19601f8201168201806040525060208110156200084e57600080fd5b81019080805160405193929190846401000000008211156200086f57600080fd5b838201915060208201858111156200088657600080fd5b8251866001820283011164010000000082111715620008a457600080fd5b8083526020830192505050908051906020019080838360005b83811015620008da578082015181840152602081019050620008bd565b50505050905090810190601f168015620009085780820380516001836020036101000a031916815260200191505b506040525050508152602001600115158152602001600067ffffffffffffffff16815260200183815250600360008573ffffffffffffffffffffffffffffffffffffffff1673ffffffffffffffffffffffffffffffffffffffff16815260200190815260200160002060008201518160000190805190602001906200098f92919062000aa6565b5060208201518160010160006101000a81548160ff02191690831515021790555060408201518160010160016101000a81548167ffffffffffffffff021916908367ffffffffffffffff160217905550606082015181600201559050505b6002839080600181540180825580915050600190039060005260206000200160009091909190916101000a81548173ffffffffffffffffffffffffffffffffffffffff021916908373ffffffffffffffffffffffffffffffffffffffff1602179055506001905092915050565b60008060007fc5d2460186f7233c927e7db2dcc703c0e500b653ca82273b7bfad8045d85a47060001b9050833f915080821415801562000a9d57506000801b8214155b92505050919050565b828054600181600116156101000203166002900490600052602060002090601f016020900481019282601f1062000ae957805160ff191683800117855562000b1a565b8280016001018555821562000b1a579182015b8281111562000b1957825182559160200191906001019062000afc565b5b50905062000b29919062000b2d565b5090565b5b8082111562000b4857600081600090555060010162000b2e565b5090565b615fdf8062000b5c6000396000f3fe6080604052600436106101e35760003560e01c80638296f5b611610102578063d41977cd11610095578063f3a5ec8911610064578063f3a5ec8914610caa578063fd688a5114610e19578063fe8ae1b014610e6a578063fefa1ebc14610f10576101e3565b8063d41977cd14610bb4578063dd79e03814610bdf578063e54e26b914610c0a578063f2fde38b14610c59576101e3565b8063a281695e116100d1578063a281695e14610976578063cac39a05146109a1578063cc4ec30b14610a6a578063cc834b8714610ac9576101e3565b80638296f5b6146106f75780638da5cb5b1461086657806392eea07b146108a75780639bf8a92d14610905576101e3565b8063502c0b651161017a57806370d5ae051161014957806370d5ae05146105d1578063715018a61461061257806373b1995f146106295780637790cbb714610690576101e3565b8063502c0b651461049a5780635291a186146104c55780635d404ddd146104f057806367bccdb614610560576101e3565b8063378ac3db116101b6578063378ac3db146102ff5780633b9ea76e1461035057806341539043146103a15780634e0bc24514610447576101e3565b806307833467146101e8578063191f033c1461024f5780632193d95f146102905780632208ebbd146102d4575b600080fd5b3480156101f457600080fd5b506102376004803603602081101561020b57600080fd5b81019080803573ffffffffffffffffffffffffffffffffffffffff169060200190929190505050610f75565b60405180821515815260200191505060405180910390f35b34801561025b57600080fd5b506102646111fb565b604051808273ffffffffffffffffffffffffffffffffffffffff16815260200191505060405180910390f35b6102bc600480360360208110156102a657600080fd5b8101908080359060200190929190505050611221565b60405180821515815260200191505060405180910390f35b3480156102e057600080fd5b506102e961171d565b6040518082815260200191505060405180910390f35b34801561030b57600080fd5b506103386004803603602081101561032257600080fd5b8101908080359060200190929190505050611723565b60405180821515815260200191505060405180910390f35b34801561035c57600080fd5b506103896004803603602081101561037357600080fd5b8101908080359060200190929190505050611e91565b60405180821515815260200191505060405180910390f35b3480156103ad57600080fd5b506103f0600480360360408110156103c457600080fd5b81019080803563ffffffff169060200190929190803563ffffffff1690602001909291905050506120bb565b6040518080602001828103825283818151815260200191508051906020019060200280838360005b83811015610433578082015181840152602081019050610418565b505050509050019250505060405180910390f35b34801561045357600080fd5b506104846004803603602081101561046a57600080fd5b81019080803561ffff169060200190929190505050612243565b6040518082815260200191505060405180910390f35b3480156104a657600080fd5b506104af61225b565b6040518082815260200191505060405180910390f35b3480156104d157600080fd5b506104da612261565b6040518082815260200191505060405180910390f35b61054a6004803603606081101561050657600080fd5b81019080803573ffffffffffffffffffffffffffffffffffffffff16906020019092919080359060200190929190803561ffff169060200190929190505050612267565b6040518082815260200191505060405180910390f35b34801561056c57600080fd5b506105b96004803603604081101561058357600080fd5b81019080803573ffffffffffffffffffffffffffffffffffffffff16906020019092919080359060200190929190505050612e6a565b60405180821515815260200191505060405180910390f35b3480156105dd57600080fd5b506105e661301a565b604051808273ffffffffffffffffffffffffffffffffffffffff16815260200191505060405180910390f35b34801561061e57600080fd5b50610627613040565b005b34801561063557600080fd5b506106786004803603602081101561064c57600080fd5b81019080803573ffffffffffffffffffffffffffffffffffffffff1690602001909291905050506131c6565b60405180821515815260200191505060405180910390f35b34801561069c57600080fd5b506106df600480360360208110156106b357600080fd5b81019080803573ffffffffffffffffffffffffffffffffffffffff169060200190929190505050613399565b60405180821515815260200191505060405180910390f35b34801561070357600080fd5b5061084e6004803603604081101561071a57600080fd5b810190808035906020019064010000000081111561073757600080fd5b82018360208201111561074957600080fd5b8035906020019184602083028401116401000000008311171561076b57600080fd5b919080806020026020016040519081016040528093929190818152602001838360200280828437600081840152601f19601f820116905080830192505050505050509192919290803590602001906401000000008111156107cb57600080fd5b8201836020820111156107dd57600080fd5b803590602001918460208302840111640100000000831117156107ff57600080fd5b919080806020026020016040519081016040528093929190818152602001838360200280828437600081840152601f19601f820116905080830192505050505050509192919290505050613783565b60405180821515815260200191505060405180910390f35b34801561087257600080fd5b5061087b61392b565b604051808273ffffffffffffffffffffffffffffffffffffffff16815260200191505060405180910390f35b3480156108b357600080fd5b506108ed600480360360408110156108ca57600080fd5b81019080803560ff16906020019092919080359060200190929190505050613954565b60405180821515815260200191505060405180910390f35b34801561091157600080fd5b5061095e6004803603604081101561092857600080fd5b81019080803573ffffffffffffffffffffffffffffffffffffffff16906020019092919080359060200190929190505050613ace565b60405180821515815260200191505060405180910390f35b34801561098257600080fd5b5061098b614192565b6040518082815260200191505060405180910390f35b3480156109ad57600080fd5b506109da600480360360208110156109c457600080fd5b8101908080359060200190929190505050614198565b604051808b73ffffffffffffffffffffffffffffffffffffffff1681526020018a73ffffffffffffffffffffffffffffffffffffffff1681526020018981526020018881526020018781526020018681526020018561ffff168152602001848152602001838152602001826003811115610a5057fe5b81526020019a505050505050505050505060405180910390f35b348015610a7657600080fd5b50610ab160048036036040811015610a8d57600080fd5b81019080803561ffff16906020019092919080359060200190929190505050614247565b60405180821515815260200191505060405180910390f35b348015610ad557600080fd5b50610b1860048036036020811015610aec57600080fd5b81019080803573ffffffffffffffffffffffffffffffffffffffff16906020019092919050505061433b565b604051808060200185151581526020018467ffffffffffffffff168152602001838152602001828103825286818151815260200191508051906020019080838360005b83811015610b76578082015181840152602081019050610b5b565b50505050905090810190601f168015610ba35780820380516001836020036101000a031916815260200191505b509550505050505060405180910390f35b348015610bc057600080fd5b50610bc9614424565b6040518082815260200191505060405180910390f35b348015610beb57600080fd5b50610bf461442a565b6040518082815260200191505060405180910390f35b348015610c1657600080fd5b50610c4360048036036020811015610c2d57600080fd5b8101908080359060200190929190505050614437565b6040518082815260200191505060405180910390f35b348015610c6557600080fd5b50610ca860048036036020811015610c7c57600080fd5b81019080803573ffffffffffffffffffffffffffffffffffffffff169060200190929190505050614458565b005b348015610cb657600080fd5b50610e0160048036036040811015610ccd57600080fd5b8101908080359060200190640100000000811115610cea57600080fd5b820183602082011115610cfc57600080fd5b80359060200191846020830284011164010000000083111715610d1e57600080fd5b919080806020026020016040519081016040528093929190818152602001838360200280828437600081840152601f19601f82011690508083019250505050505050919291929080359060200190640100000000811115610d7e57600080fd5b820183602082011115610d9057600080fd5b80359060200191846020830284011164010000000083111715610db257600080fd5b919080806020026020016040519081016040528093929190818152602001838360200280828437600081840152601f19601f820116905080830192505050505050509192919290505050614663565b60405180821515815260200191505060405180910390f35b348015610e2557600080fd5b50610e5260048036036020811015610e3c57600080fd5b81019080803590602001909291905050506147ee565b60405180821515815260200191505060405180910390f35b348015610e7657600080fd5b50610eb960048036036040811015610e8d57600080fd5b81019080803563ffffffff169060200190929190803563ffffffff1690602001909291905050506151d1565b6040518080602001828103825283818151815260200191508051906020019060200280838360005b83811015610efc578082015181840152602081019050610ee1565b505050509050019250505060405180910390f35b348015610f1c57600080fd5b50610f4960048036036020811015610f3357600080fd5b81019080803590602001909291905050506153a7565b604051808273ffffffffffffffffffffffffffffffffffffffff16815260200191505060405180910390f35b6000610f7f6154b4565b73ffffffffffffffffffffffffffffffffffffffff1660008054906101000a900473ffffffffffffffffffffffffffffffffffffffff1673ffffffffffffffffffffffffffffffffffffffff161461103f576040517f08c379a00000000000000000000000000000000000000000000000000000000081526004018080602001828103825260208152602001807f4f776e61626c653a2063616c6c6572206973206e6f7420746865206f776e657281525060200191505060405180910390fd5b600073ffffffffffffffffffffffffffffffffffffffff168273ffffffffffffffffffffffffffffffffffffffff16148061107f575061107e82615469565b5b6110d4576040517f08c379a0000000000000000000000000000000000000000000000000000000008152600401808060200182810382526025815260200180615dbd6025913960400191505060405180910390fd5b600360008373ffffffffffffffffffffffffffffffffffffffff1673ffffffffffffffffffffffffffffffffffffffff16815260200190815260200160002060010160009054906101000a900460ff1615611197576040517f08c379a00000000000000000000000000000000000000000000000000000000081526004018080602001828103825260198152602001807f546f6b656e20697320616c726561647920656e726f6c6c65640000000000000081525060200191505060405180910390fd5b6001600360008473ffffffffffffffffffffffffffffffffffffffff1673ffffffffffffffffffffffffffffffffffffffff16815260200190815260200160002060010160006101000a81548160ff02191690831515021790555060019050919050565b600860009054906101000a900473ffffffffffffffffffffffffffffffffffffffff1681565b60006002600154141561129c576040517f08c379a000000000000000000000000000000000000000000000000000000000815260040180806020018281038252601f8152602001807f5265656e7472616e637947756172643a207265656e7472616e742063616c6c0081525060200191505060405180910390fd5b6002600181905550600260038111156112b157fe5b6005600084815260200190815260200160002060090160009054906101000a900460ff1660038111156112e057fe5b14611353576040517f08c379a000000000000000000000000000000000000000000000000000000000815260040180806020018281038252601e8152602001807f436f6e7472616374206973206e6f7420696e206f70656e206d61726b6574000081525060200191505060405180910390fd5b600073ffffffffffffffffffffffffffffffffffffffff166005600084815260200190815260200160002060000160009054906101000a900473ffffffffffffffffffffffffffffffffffffffff1673ffffffffffffffffffffffffffffffffffffffff161461140e576040517f08c379a0000000000000000000000000000000000000000000000000000000008152600401808060200182810382526021815260200180615d9c6021913960400191505060405180910390fd5b600073ffffffffffffffffffffffffffffffffffffffff166005600084815260200190815260200160002060010160009054906101000a900473ffffffffffffffffffffffffffffffffffffffff1673ffffffffffffffffffffffffffffffffffffffff16146115ed57600034146114d1576040517f08c379a0000000000000000000000000000000000000000000000000000000008152600401808060200182810382526032815260200180615f786032913960400191505060405180910390fd5b6005600083815260200190815260200160002060010160009054906101000a900473ffffffffffffffffffffffffffffffffffffffff1673ffffffffffffffffffffffffffffffffffffffff166323b872dd333060056000878152602001908152602001600020600201546040518463ffffffff1660e01b8152600401808473ffffffffffffffffffffffffffffffffffffffff1681526020018373ffffffffffffffffffffffffffffffffffffffff1681526020018281526020019350505050602060405180830381600087803b1580156115ac57600080fd5b505af11580156115c0573d6000803e3d6000fd5b505050506040513d60208110156115d657600080fd5b81019080805190602001909291905050505061165c565b6005600083815260200190815260200160002060020154341461165b576040517f08c379a000000000000000000000000000000000000000000000000000000000815260040180806020018281038252603a815260200180615ec2603a913960400191505060405180910390fd5b5b426005600084815260200190815260200160002060030181905550336005600084815260200190815260200160002060000160006101000a81548173ffffffffffffffffffffffffffffffffffffffff021916908373ffffffffffffffffffffffffffffffffffffffff16021790555060016005600084815260200190815260200160002060090160006101000a81548160ff021916908360038111156116ff57fe5b021790555061170d826154bc565b6001905060018081905550919050565b600d5481565b60006002600154141561179e576040517f08c379a000000000000000000000000000000000000000000000000000000000815260040180806020018281038252601f8152602001807f5265656e7472616e637947756172643a207265656e7472616e742063616c6c0081525060200191505060405180910390fd5b6002600181905550600160038111156117b357fe5b6005600084815260200190815260200160002060090160009054906101000a900460ff1660038111156117e257fe5b14611855576040517f08c379a000000000000000000000000000000000000000000000000000000000815260040180806020018281038252601f8152602001807f436f6e7472616374206973206e6f7420696e206163746976652073746174650081525060200191505060405180910390fd5b3373ffffffffffffffffffffffffffffffffffffffff166005600084815260200190815260200160002060000160009054906101000a900473ffffffffffffffffffffffffffffffffffffffff1673ffffffffffffffffffffffffffffffffffffffff161461190f576040517f08c379a0000000000000000000000000000000000000000000000000000000008152600401808060200182810382526021815260200180615d9c6021913960400191505060405180910390fd5b600560008381526020019081526020016000206004015442101561197e576040517f08c379a0000000000000000000000000000000000000000000000000000000008152600401808060200182810382526038815260200180615d646038913960400191505060405180910390fd5b600073ffffffffffffffffffffffffffffffffffffffff166005600084815260200190815260200160002060010160009054906101000a900473ffffffffffffffffffffffffffffffffffffffff1673ffffffffffffffffffffffffffffffffffffffff161415611b3c5760006005600084815260200190815260200160002060000160009054906101000a900473ffffffffffffffffffffffffffffffffffffffff1673ffffffffffffffffffffffffffffffffffffffff16600560008581526020019081526020016000206002015460405180807f436f6c6c61746572616c2052657475726e000000000000000000000000000000815250601101905060006040518083038185875af1925050503d8060008114611aba576040519150601f19603f3d011682016040523d82523d6000602084013e611abf565b606091505b5050905080611b36576040517f08c379a000000000000000000000000000000000000000000000000000000000815260040180806020018281038252600f8152602001807f5472616e73666572206661696c6564000000000000000000000000000000000081525060200191505060405180910390fd5b50611c6c565b6005600083815260200190815260200160002060010160009054906101000a900473ffffffffffffffffffffffffffffffffffffffff1673ffffffffffffffffffffffffffffffffffffffff1663a9059cbb6005600085815260200190815260200160002060000160009054906101000a900473ffffffffffffffffffffffffffffffffffffffff1660056000868152602001908152602001600020600201546040518363ffffffff1660e01b8152600401808373ffffffffffffffffffffffffffffffffffffffff16815260200182815260200192505050602060405180830381600087803b158015611c2f57600080fd5b505af1158015611c43573d6000803e3d6000fd5b505050506040513d6020811015611c5957600080fd5b8101908080519060200190929190505050505b600860009054906101000a900473ffffffffffffffffffffffffffffffffffffffff1673ffffffffffffffffffffffffffffffffffffffff1663a9059cbb6005600085815260200190815260200160002060000160009054906101000a900473ffffffffffffffffffffffffffffffffffffffff1660056000868152602001908152602001600020600701546040518363ffffffff1660e01b8152600401808373ffffffffffffffffffffffffffffffffffffffff16815260200182815260200192505050602060405180830381600087803b158015611d4b57600080fd5b505af1158015611d5f573d6000803e3d6000fd5b505050506040513d6020811015611d7557600080fd5b81019080805190602001909291905050505060036005600084815260200190815260200160002060090160006101000a81548160ff02191690836003811115611dba57fe5b02179055506001600360006005600086815260200190815260200160002060010160009054906101000a900473ffffffffffffffffffffffffffffffffffffffff1673ffffffffffffffffffffffffffffffffffffffff1673ffffffffffffffffffffffffffffffffffffffff16815260200190815260200160002060010160018282829054906101000a900467ffffffffffffffff160392506101000a81548167ffffffffffffffff021916908367ffffffffffffffff160217905550611e81826154bc565b6001905060018081905550919050565b6000611e9b6154b4565b73ffffffffffffffffffffffffffffffffffffffff1660008054906101000a900473ffffffffffffffffffffffffffffffffffffffff1673ffffffffffffffffffffffffffffffffffffffff1614611f5b576040517f08c379a00000000000000000000000000000000000000000000000000000000081526004018080602001828103825260208152602001807f4f776e61626c653a2063616c6c6572206973206e6f7420746865206f776e657281525060200191505060405180910390fd5b60026001541415611fd4576040517f08c379a000000000000000000000000000000000000000000000000000000000815260040180806020018281038252601f8152602001807f5265656e7472616e637947756172643a207265656e7472616e742063616c6c0081525060200191505060405180910390fd5b6002600181905550600860009054906101000a900473ffffffffffffffffffffffffffffffffffffffff1673ffffffffffffffffffffffffffffffffffffffff1663a9059cbb33846040518363ffffffff1660e01b8152600401808373ffffffffffffffffffffffffffffffffffffffff16815260200182815260200192505050602060405180830381600087803b15801561206f57600080fd5b505af1158015612083573d6000803e3d6000fd5b505050506040513d602081101561209957600080fd5b8101908080519060200190929190505050506001905060018081905550919050565b60608163ffffffff168363ffffffff16111561213f576040517f08c379a000000000000000000000000000000000000000000000000000000000815260040180806020018281038252601c8152602001807f496e76616c696420737461727420616e6420656e64206c696d6974730000000081525060200191505060405180910390fd5b6004805490508263ffffffff1610612164576121616004805490506001615712565b91505b600061218661217f8463ffffffff168663ffffffff16615712565b600161575c565b905060608167ffffffffffffffff811180156121a157600080fd5b506040519080825280602002602001820160405280156121d05781602001602082028036833780820191505090505b50905060008590505b8463ffffffff168163ffffffff16116122375760048163ffffffff16815481106121ff57fe5b90600052602060002001548287830363ffffffff168151811061221e57fe5b60200260200101818152505080806001019150506121d9565b50809250505092915050565b60066020528060005260406000206000915090505481565b600c5481565b600a5481565b6000600260015414156122e2576040517f08c379a000000000000000000000000000000000000000000000000000000000815260040180806020018281038252601f8152602001807f5265656e7472616e637947756172643a207265656e7472616e742063616c6c0081525060200191505060405180910390fd5b6002600181905550600360008573ffffffffffffffffffffffffffffffffffffffff1673ffffffffffffffffffffffffffffffffffffffff16815260200190815260200160002060010160009054906101000a900460ff1661238f576040517f08c379a0000000000000000000000000000000000000000000000000000000008152600401808060200182810382526033815260200180615d0a6033913960400191505060405180910390fd5b6000338542600480549050604051602001808573ffffffffffffffffffffffffffffffffffffffff1660601b81526014018473ffffffffffffffffffffffffffffffffffffffff1660601b81526014018381526020018281526020019450505050506040516020818303038152906040528051906020012090506000600381111561241657fe5b6005600083815260200190815260200160002060090160009054906101000a900460ff16600381111561244557fe5b146124b8576040517f08c379a00000000000000000000000000000000000000000000000000000000081526004018080602001828103825260178152602001807f436f6e747261637420616c72656164792065786973747300000000000000000081525060200191505060405180910390fd5b6000600660008561ffff1661ffff16815260200190815260200160002054141561252d576040517f08c379a0000000000000000000000000000000000000000000000000000000008152600401808060200182810382526027815260200180615d3d6027913960400191505060405180910390fd5b60008073ffffffffffffffffffffffffffffffffffffffff168673ffffffffffffffffffffffffffffffffffffffff1614156125d75784341480156125725750600034115b6125c7576040517f08c379a0000000000000000000000000000000000000000000000000000000008152600401808060200182810382526030815260200180615e926030913960400191505060405180910390fd5b670de0b6b3a76400009050612731565b60003414612630576040517f08c379a000000000000000000000000000000000000000000000000000000000815260040180806020018281038252604d815260200180615c97604d913960600191505060405180910390fd5b60008514156126a7576040517f08c379a000000000000000000000000000000000000000000000000000000000815260040180806020018281038252601a8152602001807f436f6c6c61746572616c2073686f756c64206e6f74206265203000000000000081525060200191505060405180910390fd5b8573ffffffffffffffffffffffffffffffffffffffff1663313ce5676040518163ffffffff1660e01b815260040160206040518083038186803b1580156126ed57600080fd5b505afa158015612701573d6000803e3d6000fd5b505050506040513d602081101561271757600080fd5b810190808051906020019092919050505060ff16600a0a90505b60006128616128576127a961278889600360008d73ffffffffffffffffffffffffffffffffffffffff1673ffffffffffffffffffffffffffffffffffffffff168152602001908152602001600020600201546153e3565b600660008a61ffff1661ffff168152602001908152602001600020546153e3565b600860009054906101000a900473ffffffffffffffffffffffffffffffffffffffff1673ffffffffffffffffffffffffffffffffffffffff1663313ce5676040518163ffffffff1660e01b815260040160206040518083038186803b15801561281157600080fd5b505afa158015612825573d6000803e3d6000fd5b505050506040513d602081101561283b57600080fd5b810190808051906020019092919050505060ff16600a0a6153e3565b8661ffff166153e3565b905060006128f36128eb6128d98560036000600860009054906101000a900473ffffffffffffffffffffffffffffffffffffffff1673ffffffffffffffffffffffffffffffffffffffff1673ffffffffffffffffffffffffffffffffffffffff168152602001908152602001600020600201546153e3565b6128e660646127106153e3565b6153e3565b61016d6153e3565b9050600061290183836157e4565b905061290f600b548261575c565b600a541015612969576040517f08c379a000000000000000000000000000000000000000000000000000000000815260040180806020018281038252603a815260200180615de2603a913960400191505060405180910390fd5b612975600b548261575c565b600b81905550612987816007546153e3565b925061299660646127106153e3565b915060006129a484846157e4565b9050600073ffffffffffffffffffffffffffffffffffffffff168a73ffffffffffffffffffffffffffffffffffffffff1614612aa6578973ffffffffffffffffffffffffffffffffffffffff166323b872dd33308c6040518463ffffffff1660e01b8152600401808473ffffffffffffffffffffffffffffffffffffffff1681526020018373ffffffffffffffffffffffffffffffffffffffff1681526020018281526020019350505050602060405180830381600087803b158015612a6957600080fd5b505af1158015612a7d573d6000803e3d6000fd5b505050506040513d6020811015612a9357600080fd5b8101908080519060200190929190505050505b600860009054906101000a900473ffffffffffffffffffffffffffffffffffffffff1673ffffffffffffffffffffffffffffffffffffffff166323b872dd33600960009054906101000a900473ffffffffffffffffffffffffffffffffffffffff16846040518463ffffffff1660e01b8152600401808473ffffffffffffffffffffffffffffffffffffffff1681526020018373ffffffffffffffffffffffffffffffffffffffff1681526020018281526020019350505050602060405180830381600087803b158015612b7957600080fd5b505af1158015612b8d573d6000803e3d6000fd5b505050506040513d6020811015612ba357600080fd5b810190808051906020019092919050505050336005600088815260200190815260200160002060000160006101000a81548173ffffffffffffffffffffffffffffffffffffffff021916908373ffffffffffffffffffffffffffffffffffffffff160217905550896005600088815260200190815260200160002060010160006101000a81548173ffffffffffffffffffffffffffffffffffffffff021916908373ffffffffffffffffffffffffffffffffffffffff160217905550886005600088815260200190815260200160002060020181905550426005600088815260200190815260200160002060030181905550612caf42612caa8a61ffff16620151806153e3565b61575c565b6005600088815260200190815260200160002060040181905550600660008961ffff1661ffff168152602001908152602001600020546005600088815260200190815260200160002060050181905550876005600088815260200190815260200160002060060160006101000a81548161ffff021916908361ffff16021790555081600560008881526020019081526020016000206007018190555080600560008881526020019081526020016000206008018190555060016005600088815260200190815260200160002060090160006101000a81548160ff02191690836003811115612d9957fe5b021790555060048690806001815401808255809150506001900390600052602060002001600090919091909150556001600360008c73ffffffffffffffffffffffffffffffffffffffff1673ffffffffffffffffffffffffffffffffffffffff16815260200190815260200160002060010160018282829054906101000a900467ffffffffffffffff160192506101000a81548167ffffffffffffffff021916908367ffffffffffffffff160217905550612e53866154bc565b859650505050505050600180819055509392505050565b6000612e746154b4565b73ffffffffffffffffffffffffffffffffffffffff1660008054906101000a900473ffffffffffffffffffffffffffffffffffffffff1673ffffffffffffffffffffffffffffffffffffffff1614612f34576040517f08c379a00000000000000000000000000000000000000000000000000000000081526004018080602001828103825260208152602001807f4f776e61626c653a2063616c6c6572206973206e6f7420746865206f776e657281525060200191505060405180910390fd5b600073ffffffffffffffffffffffffffffffffffffffff168373ffffffffffffffffffffffffffffffffffffffff161480612f745750612f7383615469565b5b612fc9576040517f08c379a0000000000000000000000000000000000000000000000000000000008152600401808060200182810382526025815260200180615dbd6025913960400191505060405180910390fd5b81600360008573ffffffffffffffffffffffffffffffffffffffff1673ffffffffffffffffffffffffffffffffffffffff168152602001908152602001600020600201819055506001905092915050565b600960009054906101000a900473ffffffffffffffffffffffffffffffffffffffff1681565b6130486154b4565b73ffffffffffffffffffffffffffffffffffffffff1660008054906101000a900473ffffffffffffffffffffffffffffffffffffffff1673ffffffffffffffffffffffffffffffffffffffff1614613108576040517f08c379a00000000000000000000000000000000000000000000000000000000081526004018080602001828103825260208152602001807f4f776e61626c653a2063616c6c6572206973206e6f7420746865206f776e657281525060200191505060405180910390fd5b600073ffffffffffffffffffffffffffffffffffffffff1660008054906101000a900473ffffffffffffffffffffffffffffffffffffffff1673ffffffffffffffffffffffffffffffffffffffff167f8be0079c531659141344cd1fd0a4f28419497f9722a3daafe3b4186f6b6457e060405160405180910390a360008060006101000a81548173ffffffffffffffffffffffffffffffffffffffff021916908373ffffffffffffffffffffffffffffffffffffffff160217905550565b60006131d06154b4565b73ffffffffffffffffffffffffffffffffffffffff1660008054906101000a900473ffffffffffffffffffffffffffffffffffffffff1673ffffffffffffffffffffffffffffffffffffffff1614613290576040517f08c379a00000000000000000000000000000000000000000000000000000000081526004018080602001828103825260208152602001807f4f776e61626c653a2063616c6c6572206973206e6f7420746865206f776e657281525060200191505060405180910390fd5b600360008373ffffffffffffffffffffffffffffffffffffffff1673ffffffffffffffffffffffffffffffffffffffff16815260200190815260200160002060010160009054906101000a900460ff16613335576040517f08c379a000000000000000000000000000000000000000000000000000000000815260040180806020018281038252602b815260200180615efc602b913960400191505060405180910390fd5b6000600360008473ffffffffffffffffffffffffffffffffffffffff1673ffffffffffffffffffffffffffffffffffffffff16815260200190815260200160002060010160006101000a81548160ff02191690831515021790555060019050919050565b60006133a36154b4565b73ffffffffffffffffffffffffffffffffffffffff1660008054906101000a900473ffffffffffffffffffffffffffffffffffffffff1673ffffffffffffffffffffffffffffffffffffffff1614613463576040517f08c379a00000000000000000000000000000000000000000000000000000000081526004018080602001828103825260208152602001807f4f776e61626c653a2063616c6c6572206973206e6f7420746865206f776e657281525060200191505060405180910390fd5b6000600360008473ffffffffffffffffffffffffffffffffffffffff1673ffffffffffffffffffffffffffffffffffffffff16815260200190815260200160002060010160019054906101000a900467ffffffffffffffff1667ffffffffffffffff1614613539576040517f08c379a000000000000000000000000000000000000000000000000000000000815260040180806020018281038252601c8152602001807f546f6b656e20686173206578697374696e6720636f6e7472616374730000000081525060200191505060405180910390fd5b60006135cb8360028054806020026020016040519081016040528092919081815260200182805480156135c157602002820191906000526020600020905b8160009054906101000a900473ffffffffffffffffffffffffffffffffffffffff1673ffffffffffffffffffffffffffffffffffffffff1681526020019060010190808311613577575b505050505061582e565b63ffffffff16905060006002600160028054905003815481106135ea57fe5b9060005260206000200160009054906101000a900473ffffffffffffffffffffffffffffffffffffffff169050806002838154811061362557fe5b9060005260206000200160006101000a81548173ffffffffffffffffffffffffffffffffffffffff021916908373ffffffffffffffffffffffffffffffffffffffff16021790555060026001600280549050038154811061368257fe5b9060005260206000200160006101000a81549073ffffffffffffffffffffffffffffffffffffffff021916905560028054806136ba57fe5b6001900381819060005260206000200160006101000a81549073ffffffffffffffffffffffffffffffffffffffff02191690559055600360008573ffffffffffffffffffffffffffffffffffffffff1673ffffffffffffffffffffffffffffffffffffffff1681526020019081526020016000206000808201600061373f9190615bb1565b6001820160006101000a81549060ff02191690556001820160016101000a81549067ffffffffffffffff021916905560028201600090555050600192505050919050565b600061378d6154b4565b73ffffffffffffffffffffffffffffffffffffffff1660008054906101000a900473ffffffffffffffffffffffffffffffffffffffff1673ffffffffffffffffffffffffffffffffffffffff161461384d576040517f08c379a00000000000000000000000000000000000000000000000000000000081526004018080602001828103825260208152602001807f4f776e61626c653a2063616c6c6572206973206e6f7420746865206f776e657281525060200191505060405180910390fd5b81518351146138c4576040517f08c379a00000000000000000000000000000000000000000000000000000000081526004018080602001828103825260208152602001807f496e707574206172726179206c656e6774687320646f206e6f74206d6174636881525060200191505060405180910390fd5b60005b83518163ffffffff16101561392057613912848263ffffffff16815181106138eb57fe5b6020026020010151848363ffffffff168151811061390557fe5b6020026020010151612e6a565b5080806001019150506138c7565b506001905092915050565b60008060009054906101000a900473ffffffffffffffffffffffffffffffffffffffff16905090565b600061395e6154b4565b73ffffffffffffffffffffffffffffffffffffffff1660008054906101000a900473ffffffffffffffffffffffffffffffffffffffff1673ffffffffffffffffffffffffffffffffffffffff1614613a1e576040517f08c379a00000000000000000000000000000000000000000000000000000000081526004018080602001828103825260208152602001807f4f776e61626c653a2063616c6c6572206973206e6f7420746865206f776e657281525060200191505060405180910390fd5b60006003811115613a2b57fe5b836003811115613a3757fe5b1415613a495781600781905550613ac8565b60016003811115613a5657fe5b836003811115613a6257fe5b1415613a745781600c81905550613ac7565b60026003811115613a8157fe5b836003811115613a8d57fe5b1415613a9f5781600d81905550613ac6565b600380811115613aab57fe5b836003811115613ab757fe5b1415613ac55781600a819055505b5b5b5b92915050565b6000613ad86154b4565b73ffffffffffffffffffffffffffffffffffffffff1660008054906101000a900473ffffffffffffffffffffffffffffffffffffffff1673ffffffffffffffffffffffffffffffffffffffff1614613b98576040517f08c379a00000000000000000000000000000000000000000000000000000000081526004018080602001828103825260208152602001807f4f776e61626c653a2063616c6c6572206973206e6f7420746865206f776e657281525060200191505060405180910390fd5b600073ffffffffffffffffffffffffffffffffffffffff168373ffffffffffffffffffffffffffffffffffffffff161480613bd85750613bd783615469565b5b613c2d576040517f08c379a0000000000000000000000000000000000000000000000000000000008152600401808060200182810382526027815260200180615f516027913960400191505060405180910390fd5b6000600360008573ffffffffffffffffffffffffffffffffffffffff1673ffffffffffffffffffffffffffffffffffffffff16815260200190815260200160002060010160019054906101000a900467ffffffffffffffff1667ffffffffffffffff1614613d03576040517f08c379a000000000000000000000000000000000000000000000000000000000815260040180806020018281038252601c8152602001807f546f6b656e20686173206578697374696e6720636f6e7472616374730000000081525060200191505060405180910390fd5b600360008473ffffffffffffffffffffffffffffffffffffffff1673ffffffffffffffffffffffffffffffffffffffff16815260200190815260200160002060010160009054906101000a900460ff1615613da9576040517f08c379a000000000000000000000000000000000000000000000000000000000815260040180806020018281038252602a815260200180615f27602a913960400191505060405180910390fd5b600073ffffffffffffffffffffffffffffffffffffffff168373ffffffffffffffffffffffffffffffffffffffff161415613eff5760405180608001604052806040518060400160405280600381526020017f45544800000000000000000000000000000000000000000000000000000000008152508152602001600115158152602001600067ffffffffffffffff16815260200183815250600360008573ffffffffffffffffffffffffffffffffffffffff1673ffffffffffffffffffffffffffffffffffffffff1681526020019081526020016000206000820151816000019080519060200190613e9d929190615bf9565b5060208201518160010160006101000a81548160ff02191690831515021790555060408201518160010160016101000a81548167ffffffffffffffff021916908367ffffffffffffffff16021790555060608201518160020155905050614125565b60405180608001604052808473ffffffffffffffffffffffffffffffffffffffff166395d89b416040518163ffffffff1660e01b815260040160006040518083038186803b158015613f5057600080fd5b505afa158015613f64573d6000803e3d6000fd5b505050506040513d6000823e3d601f19601f820116820180604052506020811015613f8e57600080fd5b8101908080516040519392919084640100000000821115613fae57600080fd5b83820191506020820185811115613fc457600080fd5b8251866001820283011164010000000082111715613fe157600080fd5b8083526020830192505050908051906020019080838360005b83811015614015578082015181840152602081019050613ffa565b50505050905090810190601f1680156140425780820380516001836020036101000a031916815260200191505b506040525050508152602001600115158152602001600067ffffffffffffffff16815260200183815250600360008573ffffffffffffffffffffffffffffffffffffffff1673ffffffffffffffffffffffffffffffffffffffff16815260200190815260200160002060008201518160000190805190602001906140c7929190615bf9565b5060208201518160010160006101000a81548160ff02191690831515021790555060408201518160010160016101000a81548167ffffffffffffffff021916908367ffffffffffffffff160217905550606082015181600201559050505b6002839080600181540180825580915050600190039060005260206000200160009091909190916101000a81548173ffffffffffffffffffffffffffffffffffffffff021916908373ffffffffffffffffffffffffffffffffffffffff1602179055506001905092915050565b600b5481565b60056020528060005260406000206000915090508060000160009054906101000a900473ffffffffffffffffffffffffffffffffffffffff16908060010160009054906101000a900473ffffffffffffffffffffffffffffffffffffffff16908060020154908060030154908060040154908060050154908060060160009054906101000a900461ffff16908060070154908060080154908060090160009054906101000a900460ff1690508a565b60006142516154b4565b73ffffffffffffffffffffffffffffffffffffffff1660008054906101000a900473ffffffffffffffffffffffffffffffffffffffff1673ffffffffffffffffffffffffffffffffffffffff1614614311576040517f08c379a00000000000000000000000000000000000000000000000000000000081526004018080602001828103825260208152602001807f4f776e61626c653a2063616c6c6572206973206e6f7420746865206f776e657281525060200191505060405180910390fd5b81600660008561ffff1661ffff168152602001908152602001600020819055506001905092915050565b6003602052806000526040600020600091509050806000018054600181600116156101000203166002900480601f0160208091040260200160405190810160405280929190818152602001828054600181600116156101000203166002900480156143e75780601f106143bc576101008083540402835291602001916143e7565b820191906000526020600020905b8154815290600101906020018083116143ca57829003601f168201915b5050505050908060010160009054906101000a900460ff16908060010160019054906101000a900467ffffffffffffffff16908060020154905084565b60075481565b6000600280549050905090565b6004818154811061444457fe5b906000526020600020016000915090505481565b6144606154b4565b73ffffffffffffffffffffffffffffffffffffffff1660008054906101000a900473ffffffffffffffffffffffffffffffffffffffff1673ffffffffffffffffffffffffffffffffffffffff1614614520576040517f08c379a00000000000000000000000000000000000000000000000000000000081526004018080602001828103825260208152602001807f4f776e61626c653a2063616c6c6572206973206e6f7420746865206f776e657281525060200191505060405180910390fd5b600073ffffffffffffffffffffffffffffffffffffffff168173ffffffffffffffffffffffffffffffffffffffff1614156145a6576040517f08c379a0000000000000000000000000000000000000000000000000000000008152600401808060200182810382526026815260200180615ce46026913960400191505060405180910390fd5b8073ffffffffffffffffffffffffffffffffffffffff1660008054906101000a900473ffffffffffffffffffffffffffffffffffffffff1673ffffffffffffffffffffffffffffffffffffffff167f8be0079c531659141344cd1fd0a4f28419497f9722a3daafe3b4186f6b6457e060405160405180910390a3806000806101000a81548173ffffffffffffffffffffffffffffffffffffffff021916908373ffffffffffffffffffffffffffffffffffffffff16021790555050565b600061466d6154b4565b73ffffffffffffffffffffffffffffffffffffffff1660008054906101000a900473ffffffffffffffffffffffffffffffffffffffff1673ffffffffffffffffffffffffffffffffffffffff161461472d576040517f08c379a00000000000000000000000000000000000000000000000000000000081526004018080602001828103825260208152602001807f4f776e61626c653a2063616c6c6572206973206e6f7420746865206f776e657281525060200191505060405180910390fd5b8151835114614787576040517f08c379a0000000000000000000000000000000000000000000000000000000008152600401808060200182810382526023815260200180615e1c6023913960400191505060405180910390fd5b60005b83518163ffffffff1610156147e3576147d5848263ffffffff16815181106147ae57fe5b6020026020010151848363ffffffff16815181106147c857fe5b6020026020010151613ace565b50808060010191505061478a565b506001905092915050565b600060026001541415614869576040517f08c379a000000000000000000000000000000000000000000000000000000000815260040180806020018281038252601f8152602001807f5265656e7472616e637947756172643a207265656e7472616e742063616c6c0081525060200191505060405180910390fd5b60026001819055506001600381111561487e57fe5b6005600084815260200190815260200160002060090160009054906101000a900460ff1660038111156148ad57fe5b14614920576040517f08c379a000000000000000000000000000000000000000000000000000000000815260040180806020018281038252601f8152602001807f436f6e7472616374206973206e6f7420696e206163746976652073746174650081525060200191505060405180910390fd5b3373ffffffffffffffffffffffffffffffffffffffff166005600084815260200190815260200160002060000160009054906101000a900473ffffffffffffffffffffffffffffffffffffffff1673ffffffffffffffffffffffffffffffffffffffff16146149f7576040517f08c379a00000000000000000000000000000000000000000000000000000000081526004018080602001828103825260198152602001807f52656465656d6572206973206e6f7420746865206f776e65720000000000000081525060200191505060405180910390fd5b600560008381526020019081526020016000206003015442118015614a315750600560008381526020019081526020016000206004015442105b614a86576040517f08c379a0000000000000000000000000000000000000000000000000000000008152600401808060200182810382526032815260200180615e606032913960400191505060405180910390fd5b6000614ac7614aab426005600087815260200190815260200160002060030154615712565b60056000868152602001908152602001600020600701546153e3565b90506000614b006005600086815260200190815260200160002060060160009054906101000a900461ffff1661ffff16620151806153e3565b90506000614b0e83836157e4565b9050614b46614b21600d54600c54615712565b614b4142600560008a815260200190815260200160002060030154615712565b6153e3565b9250614b7d6005600087815260200190815260200160002060060160009054906101000a900461ffff1661ffff16620151806153e3565b91506000614b96600d54614b9186866157e4565b615712565b9050614ba281836153e3565b9350614bb160646127106153e3565b92506000614bbf85856157e4565b90506000614bcd8483615712565b9050600073ffffffffffffffffffffffffffffffffffffffff16600560008a815260200190815260200160002060010160009054906101000a900473ffffffffffffffffffffffffffffffffffffffff1673ffffffffffffffffffffffffffffffffffffffff161415614d8d576000600560008a815260200190815260200160002060000160009054906101000a900473ffffffffffffffffffffffffffffffffffffffff1673ffffffffffffffffffffffffffffffffffffffff16600560008b81526020019081526020016000206002015460405180807f436f6c6c61746572616c2052657475726e000000000000000000000000000000815250601101905060006040518083038185875af1925050503d8060008114614d0b576040519150601f19603f3d011682016040523d82523d6000602084013e614d10565b606091505b5050905080614d87576040517f08c379a000000000000000000000000000000000000000000000000000000000815260040180806020018281038252600f8152602001807f5472616e73666572206661696c6564000000000000000000000000000000000081525060200191505060405180910390fd5b50614ebd565b6005600089815260200190815260200160002060010160009054906101000a900473ffffffffffffffffffffffffffffffffffffffff1673ffffffffffffffffffffffffffffffffffffffff1663a9059cbb600560008b815260200190815260200160002060000160009054906101000a900473ffffffffffffffffffffffffffffffffffffffff16600560008c8152602001908152602001600020600201546040518363ffffffff1660e01b8152600401808373ffffffffffffffffffffffffffffffffffffffff16815260200182815260200192505050602060405180830381600087803b158015614e8057600080fd5b505af1158015614e94573d6000803e3d6000fd5b505050506040513d6020811015614eaa57600080fd5b8101908080519060200190929190505050505b600860009054906101000a900473ffffffffffffffffffffffffffffffffffffffff1673ffffffffffffffffffffffffffffffffffffffff1663a9059cbb600560008b815260200190815260200160002060000160009054906101000a900473ffffffffffffffffffffffffffffffffffffffff16836040518363ffffffff1660e01b8152600401808373ffffffffffffffffffffffffffffffffffffffff16815260200182815260200192505050602060405180830381600087803b158015614f8657600080fd5b505af1158015614f9a573d6000803e3d6000fd5b505050506040513d6020811015614fb057600080fd5b810190808051906020019092919050505050600860009054906101000a900473ffffffffffffffffffffffffffffffffffffffff1673ffffffffffffffffffffffffffffffffffffffff1663a9059cbb600960009054906101000a900473ffffffffffffffffffffffffffffffffffffffff16846040518363ffffffff1660e01b8152600401808373ffffffffffffffffffffffffffffffffffffffff16815260200182815260200192505050602060405180830381600087803b15801561507757600080fd5b505af115801561508b573d6000803e3d6000fd5b505050506040513d60208110156150a157600080fd5b81019080805190602001909291905050505042600560008a8152602001908152602001600020600301819055506150ee600560008a81526020019081526020016000206007015485615712565b600560008a8152602001908152602001600020600701819055506000600560008a8152602001908152602001600020600801819055506000600560008a815260200190815260200160002060000160006101000a81548173ffffffffffffffffffffffffffffffffffffffff021916908373ffffffffffffffffffffffffffffffffffffffff1602179055506002600560008a815260200190815260200160002060090160006101000a81548160ff021916908360038111156151ad57fe5b02179055506151bb886154bc565b6001965050505050505060018081905550919050565b60608163ffffffff168363ffffffff161115615255576040517f08c379a000000000000000000000000000000000000000000000000000000000815260040180806020018281038252601c8152602001807f496e76616c696420737461727420616e6420656e64206c696d6974730000000081525060200191505060405180910390fd5b6002805490508263ffffffff161061527a576152776002805490506001615712565b91505b600061529c6152958463ffffffff168663ffffffff16615712565b600161575c565b905060608167ffffffffffffffff811180156152b757600080fd5b506040519080825280602002602001820160405280156152e65781602001602082028036833780820191505090505b50905060008590505b8463ffffffff168163ffffffff161161539b5760028163ffffffff168154811061531557fe5b9060005260206000200160009054906101000a900473ffffffffffffffffffffffffffffffffffffffff168287830363ffffffff168151811061535457fe5b602002602001019073ffffffffffffffffffffffffffffffffffffffff16908173ffffffffffffffffffffffffffffffffffffffff168152505080806001019150506152ef565b50809250505092915050565b600281815481106153b457fe5b906000526020600020016000915054906101000a900473ffffffffffffffffffffffffffffffffffffffff1681565b6000808314156153f65760009050615463565b600082840290508284828161540757fe5b041461545e576040517f08c379a0000000000000000000000000000000000000000000000000000000008152600401808060200182810382526021815260200180615e3f6021913960400191505060405180910390fd5b809150505b92915050565b60008060007fc5d2460186f7233c927e7db2dcc703c0e500b653ca82273b7bfad8045d85a47060001b9050833f91508082141580156154ab57506000801b8214155b92505050919050565b600033905090565b7f74f9edac6a3d29d7a8e2b768a23da2341619179b55eeb98632b363f5350d579e6005600083815260200190815260200160002060000160009054906101000a900473ffffffffffffffffffffffffffffffffffffffff166005600084815260200190815260200160002060010160009054906101000a900473ffffffffffffffffffffffffffffffffffffffff1660056000858152602001908152602001600020600201546005600086815260200190815260200160002060030154600560008781526020019081526020016000206004015460056000888152602001908152602001600020600501546005600089815260200190815260200160002060060160009054906101000a900461ffff16600560008a815260200190815260200160002060070154600560008b815260200190815260200160002060080154615626600560008d815260200190815260200160002060090160009054906101000a900460ff166158b4565b604051808b73ffffffffffffffffffffffffffffffffffffffff1681526020018a73ffffffffffffffffffffffffffffffffffffffff1681526020018981526020018881526020018781526020018681526020018561ffff16815260200184815260200183815260200180602001828103825283818151815260200191508051906020019080838360005b838110156156cc5780820151818401526020810190506156b1565b50505050905090810190601f1680156156f95780820380516001836020036101000a031916815260200191505b509b50505050505050505050505060405180910390a150565b600061575483836040518060400160405280601e81526020017f536166654d6174683a207375627472616374696f6e206f766572666c6f770000815250615a2b565b905092915050565b6000808284019050838110156157da576040517f08c379a000000000000000000000000000000000000000000000000000000000815260040180806020018281038252601b8152602001807f536166654d6174683a206164646974696f6e206f766572666c6f77000000000081525060200191505060405180910390fd5b8091505092915050565b600061582683836040518060400160405280601a81526020017f536166654d6174683a206469766973696f6e206279207a65726f000000000000815250615aeb565b905092915050565b600080600090505b82518163ffffffff1610156158a857828163ffffffff168151811061585757fe5b602002602001015173ffffffffffffffffffffffffffffffffffffffff168473ffffffffffffffffffffffffffffffffffffffff16141561589b57809150506158ae565b8080600101915050615836565b50600080fd5b92915050565b60608160038111156158c257fe5b600060038111156158cf57fe5b1415615912576040518060400160405280600881526020017f696e6163746976650000000000000000000000000000000000000000000000008152509050615a26565b81600381111561591e57fe5b6001600381111561592b57fe5b141561596e576040518060400160405280600681526020017f61637469766500000000000000000000000000000000000000000000000000008152509050615a26565b81600381111561597a57fe5b6002600381111561598757fe5b14156159ca576040518060400160405280600a81526020017f6f70656e4d61726b6574000000000000000000000000000000000000000000008152509050615a26565b8160038111156159d657fe5b6003808111156159e257fe5b1415615a25576040518060400160405280600781526020017f636c61696d6564000000000000000000000000000000000000000000000000008152509050615a26565b5b919050565b6000838311158290615ad8576040517f08c379a00000000000000000000000000000000000000000000000000000000081526004018080602001828103825283818151815260200191508051906020019080838360005b83811015615a9d578082015181840152602081019050615a82565b50505050905090810190601f168015615aca5780820380516001836020036101000a031916815260200191505b509250505060405180910390fd5b5060008385039050809150509392505050565b60008083118290615b97576040517f08c379a00000000000000000000000000000000000000000000000000000000081526004018080602001828103825283818151815260200191508051906020019080838360005b83811015615b5c578082015181840152602081019050615b41565b50505050905090810190601f168015615b895780820380516001836020036101000a031916815260200191505b509250505060405180910390fd5b506000838581615ba357fe5b049050809150509392505050565b50805460018160011615610100020316600290046000825580601f10615bd75750615bf6565b601f016020900490600052602060002090810190615bf59190615c79565b5b50565b828054600181600116156101000203166002900490600052602060002090601f016020900481019282601f10615c3a57805160ff1916838001178555615c68565b82800160010185558215615c68579182015b82811115615c67578251825591602001919060010190615c4c565b5b509050615c759190615c79565b5090565b5b80821115615c92576000816000905550600101615c7a565b509056fe496e636f72726563742066756e6473206d656e74696f6e65642e204554482076616c75652073686f756c642062652076616c7565203020666f72206e6f6e2045544820636f6c6c61746572616c4f776e61626c653a206e6577206f776e657220697320746865207a65726f2061646472657373546f6b656e2f436f696e206973206e6f7420617070726f76656420746f20637265617465207969656c6420636f6e74726163744e6f20696e74657265737420726174652069732073657420666f7220746869732074656e757265436f6e74726163742063616e6e6f7420626520636c61696d6564206e6f772e2049742063616e206265206561726c792072656465656d6564436f6e7472616374206973206f776e656420627920736f6d656f6e6520656c7365496e7075742061646472657373206973206e6f7420636f6e747261637420616464726573734d5858206d696e746564206578636565647320746f74616c20616c6c6f6361746564204d585820666f72207969656c6420636f6e747261637473496e70757420617272617973206d757374206265206f662073616d65206c656e677468536166654d6174683a206d756c7469706c69636174696f6e206f766572666c6f77436f6e7472616374206973206265796f6e642069747320656e642074696d652e2049742063616e20626520636c61696d6564496e636f72726563742066756e6473206d656e74696f6e65642e20455448206e6f742073656e742070726f7065726c79496e636f72726563742066756e64732e20506c656173652073656e6420455448206f6620657175616c20636f6c6c61746572616c2076616c7565546f6b656e206973206569746865722072656d6f766564206f7220616c72656164792064656c6973746564546f6b656e20697320616c726561647920617661696c61626c6520696e2074686520636f6e7472616374496e7075742061646472657373206973206e6f74206120636f6e747261637420616464726573734554482073686f756c64206e6f742062652073656e7420616c6f6e67207769746820455243323020636f6c6c61746572616ca26469706673582212206da5bb63e3126fbe8ea6f8f639d0ad0b154c0ef5796554cb188679218d76d43364736f6c634300060c0033536166654d6174683a206d756c7469706c69636174696f6e206f766572666c6f77546f6b656e20697320616c726561647920617661696c61626c6520696e2074686520636f6e7472616374496e7075742061646472657373206973206e6f74206120636f6e74726163742061646472657373",
  "immutableReferences": {},
  "source": "// SPDX-License-Identifier: CC-BY-NC-ND-4.0\r\n\r\npragma solidity ^0.6.0;\r\n\r\n// Importing libraries\r\nimport \"@openzeppelin/contracts/access/Ownable.sol\";\r\nimport \"@openzeppelin/contracts/token/ERC20/ERC20.sol\";\r\nimport \"@openzeppelin/contracts/math/SafeMath.sol\";\r\nimport \"@openzeppelin/contracts/utils/Address.sol\";\r\nimport \"@openzeppelin/contracts/utils/ReentrancyGuard.sol\";\r\nimport \"./Tokens/Multiplier.sol\";\r\n\r\n\r\n/**\r\n * @title Yield Contract\r\n * @notice Contract to create yield contracts for users\r\n */\r\n\r\n/**\r\n * TO NOTE\r\n * @notice Store collateral and provide interest MXX or burn MXX\r\n * @notice Interest (contractFee, penaltyFee etc) is always represented 10 power 6 times the actual value\r\n * @notice Note that only 4 decimal precision is allowed for interest\r\n * @notice If interest is 5%, then value to input is 0.05 * 10 pow 6 = 5000\r\n * @notice mFactor or mintFactor is represented 10 power 18 times the actual value.\r\n * @notice If value of 1 ETH is 380 USD, then mFactor of ETH is (380 * (10 power 18))\r\n * @notice Collateral should always be in its lowest denomination (based on the coin or Token)\r\n * @notice If collateral is 6 USDT, then value is 6 * (10 power 6) as USDT supports 6 decimals\r\n * @notice startTime and endTime are represented in Unix time\r\n * @notice tenure for contract is represented in days (90, 180, 270) etc\r\n * @notice mxxToBeMinted or mxxToBeMinted is always in its lowest denomination (8 decimals)\r\n * @notice For e.g if mxxToBeMinted = 6 MXX, then actual value is 6 * (10 power 8)\r\n */\r\n\r\ncontract YieldContract is Ownable, ReentrancyGuard {\r\n\r\n  // Using SafeMath Library to prevent integer overflow\r\n  using SafeMath for uint256;\r\n\r\n  // Using Address library for ERC20 contract checks\r\n  using Address for address;\r\n\r\n  /**\r\n   * DEFINING VARIABLES\r\n   */\r\n\r\n  /**\r\n   * @dev - Array to store valid ERC20 addresses \r\n   */  \r\n  address[] public validERC20;\r\n\r\n  /**\r\n   * @dev - A struct to store ERC20 details\r\n   * @notice symbol - The symbol/ ticker symbol of ERC20 contract\r\n   * @notice isValid - Boolean variable indicating if the ERC20 is valid to be used for yield contracts\r\n   * @notice noContracts - Integer indicating the number of contracts associated with it\r\n   * @notice mFactor - Value of a coin/token in USD * 10 power 18\r\n   */  \r\n  struct ERC20Details {\r\n    string symbol;\r\n    bool isValid;\r\n    uint64 noContracts;\r\n    uint256 mFactor;\r\n  }\r\n\r\n  /**\r\n   * @dev - A mapping to map ERC20 addresses to its details\r\n   */ \r\n  mapping(address => ERC20Details) public ERC20Map;\r\n\r\n  /**\r\n   * @dev - Array to store user created yield contract IDs \r\n   */  \r\n  bytes32[] public allContracts;\r\n\r\n  /**\r\n   * @dev - A enum to store yield contract status\r\n   */ \r\n  enum Status { inactive, active, openMarket, claimed}\r\n\r\n  /**\r\n   * @dev - A enum to switch set value case\r\n   */    \r\n  enum paramType { contractFee, minEarlyRedeemFee, maxEarlyRedeemFee, totalAllocatedMxx}\r\n\r\n  /**\r\n   * @dev - A struct to store yield contract details\r\n   * @notice contractOwner - The owner of the yield contract\r\n   * @notice tokenAddress - ERC20 contract address (if ETH then address(0))\r\n   * @notice collateral - Value of collateral (multiplied by 10 power 18 to handle decimals)\r\n   * @notice startTime - Start time of the yield contract (in unix timestamp)\r\n   * @notice endTime - End time of the yield contract (in unix timestamp)\r\n   * @notice interest - APY or Annual Percentage Yield (returned from tenureApyMap)\r\n   * @notice tenure - The agreement tenure in days\r\n   * @notice mxxToBeMinted - The final MXX token value to be returned to the contract owner\r\n   * @notice mxxToBeBurnt - The MXX value to be burnt from user's account when creating a contract\r\n   * @notice contractStatus - The status of a contract (can be inactive/active/openMarket/Claimed)\r\n   */  \r\n  struct contractDetails {\r\n    address contractOwner;\r\n    address tokenAddress;\r\n    uint256 collateral;\r\n    uint256 startTime;\r\n    uint256 endTime;\r\n    uint256 interest;\r\n    uint16 tenure;\r\n    uint256 mxxToBeMinted;\r\n    uint256 mxxToBeBurnt;\r\n    Status contractStatus; \r\n  }\r\n\r\n  /**\r\n   * @dev - A mapping to map contract IDs to their details\r\n   */ \r\n  mapping(bytes32 => contractDetails) public contractMap;\r\n\r\n  /**\r\n   * @dev - A mapping to map tenure in days to apy (Annual Percentage Yield aka interest rate)\r\n   * Percent rate is multiplied by 10 power 6. (For e.g. if 5% then value is 0.05 * 10 power 6)\r\n   */ \r\n  mapping(uint16 => uint256) public tenureApyMap;\r\n\r\n  /**\r\n   * @dev - Variable to store contract fee\r\n   * If 10% then value is 0.1 * 10 power 6\r\n   */ \r\n  uint256 public contractFee;\r\n\r\n  /**\r\n   * @dev - Variable to store MXX ERC20 token address\r\n   */ \r\n  address public mxxAddress;\r\n\r\n  /**\r\n   * @dev - Address where MXX will be sent to burn\r\n   */ \r\n  address public burnAddress;\r\n\r\n  /**\r\n   * @dev - Variable to store total allocated MXX for yield contracts\r\n   */ \r\n  uint256 public totalAllocatedMxx;\r\n\r\n  /**\r\n   * @dev - Variable to total MXX minted from yield contracts\r\n   */ \r\n  uint256 public mxxMintedFromContract;\r\n\r\n  /**\r\n   * @dev - Variables to store % of penalty / redeem fee fees\r\n   * If min penalty / redeem fee is 5% then value is 0.05 * 10 power 6\r\n   * If max penalty / redeem fee is 50% then value is 0.5 * 10 power 6\r\n   */ \r\n  uint256 public minEarlyRedeemFee;\r\n  uint256 public maxEarlyRedeemFee;\r\n\r\n  /**\r\n   * DEFINING EVENTS\r\n   */\r\n\r\n  /**\r\n   * @dev - An event to be emitted when a contract is created/updated\r\n   * @notice contractOwner - The owner of the yield contract\r\n   * @notice tokenAddress - ERC20 contract address (if ETH then address(0))\r\n   * @notice collateral - Value of collateral (multiplied by 10 power 18 to handle decimals)\r\n   * @notice startTime - Start time of the yield contract (in unix timestamp)\r\n   * @notice endTime - End time of the yield contract (in unix timestamp)\r\n   * @notice interest - APY or Annual Percentage Yield (returned from tenureApyMap)\r\n   * @notice tenure - The agreement tenure in days\r\n   * @notice mxxToBeMinted - The final MXX token value to be returned to the contract owner\r\n   * @notice mxxToBeBurnt - The MXX value to be burnt from user's account when creating a contract\r\n   * @notice contractStatus - The status of a contract (can be inactive/active/openMarket/Claimed)\r\n   */ \r\n\r\n  event yieldContractStatus(\r\n  address contractOwner, \r\n  address tokenAddress, \r\n  uint256 collateral, \r\n  uint256 startTime, \r\n  uint256 endTime, \r\n  uint256 interest, \r\n  uint16 tenure, \r\n  uint256 mxxToBeMinted, \r\n  uint256 mxxToBeBurnt, \r\n  string contractStatus);\r\n\r\n  /**\r\n   * CONSTRUCTOR FUNCTION\r\n   */\r\n\r\n  constructor(address _mxxAddress, uint256 _mxxmFactor) public Ownable() {\r\n\r\n    // Setting default variables\r\n    tenureApyMap[90] = SafeMath.mul(50, 10 ** 4);\r\n    tenureApyMap[180] = SafeMath.mul(100, 10 ** 4);\r\n    tenureApyMap[270] = SafeMath.mul(300, 10 ** 4);\r\n    contractFee = SafeMath.mul(10, 10 ** 4);\r\n    totalAllocatedMxx = SafeMath.mul(1000000000, 10 ** 8);\r\n    minEarlyRedeemFee = SafeMath.mul(5, 10 ** 4);\r\n    maxEarlyRedeemFee = SafeMath.mul(50, 10 ** 4);\r\n    mxxMintedFromContract = 0;\r\n    burnAddress = address(0); // HERE //\r\n\r\n    // Setting MXX address\r\n    mxxAddress = _mxxAddress;\r\n    addValidERC20(_mxxAddress,_mxxmFactor);\r\n\r\n  }\r\n\r\n  /**\r\n   * INTERNAL FUNCTIONS\r\n   */\r\n\r\n  /**\r\n   * @dev This function will check the array for an element and retun the index\r\n   * @param _inputAddress - Address for which the index has to be found\r\n   * @param _inputAddressList - The address list to be checked\r\n   * @return index - Index element indicating the position of the inputAddress inside the array\r\n   * Access Control: This contract or derived contract\r\n   */\r\n  \r\n  function getIndex(address _inputAddress, address[] memory _inputAddressList) internal pure returns(uint32 index) {\r\n\r\n    // Enter loop\r\n    for(uint32 i = 0; i < _inputAddressList.length; i++) {\r\n\r\n      // If value matches, return index\r\n      if(_inputAddress == _inputAddressList[i]) {\r\n        index = i;\r\n        return(index);\r\n      }\r\n    }\r\n\r\n    // If no value matches, revert\r\n    revert();\r\n  }\r\n  \r\n  /**\r\n   * @dev This function will emit contract status\r\n   * @param _contractId - The id of the contract\r\n   * Access Control: This contract or derived contract\r\n   */\r\n\r\n  function emitContractStatus(bytes32 _contractId) internal {\r\n\r\n    // Emit event\r\n    emit yieldContractStatus(\r\n    contractMap[_contractId].contractOwner,\r\n    contractMap[_contractId].tokenAddress,\r\n    contractMap[_contractId].collateral,\r\n    contractMap[_contractId].startTime,\r\n    contractMap[_contractId].endTime,\r\n    contractMap[_contractId].interest,\r\n    contractMap[_contractId].tenure,\r\n    contractMap[_contractId].mxxToBeMinted,\r\n    contractMap[_contractId].mxxToBeBurnt,\r\n    getContractStatusKey(contractMap[_contractId].contractStatus)\r\n    );\r\n\r\n  }\r\n\r\n  /**\r\n   * @dev This function will return the key of the contract status in string\r\n   * @param _status - Status of the contract in Status enum type or uint\r\n   * @return - Status of the contract - inactive/active/claimed/openMarket\r\n   * @notice - Fails with improper input\r\n   * Access Control: This contract or derived contract\r\n   */\r\n  \r\n  function getContractStatusKey(Status _status) internal pure returns(string memory ) {\r\n\r\n    // Check for status. If status match, return status as string\r\n    if(Status.inactive == _status) return \"inactive\";\r\n    if(Status.active == _status) return \"active\";\r\n    if(Status.openMarket == _status) return \"openMarket\";\r\n    if(Status.claimed == _status) return \"claimed\";\r\n  } \r\n\r\n  \r\n\r\n  /**\r\n   * GENERAL FUNCTIONS\r\n   */ \r\n\r\n  /**\r\n   * @dev This function will set interest rate for the tenure in days\r\n   * @param _tenure - Tenure of the agreement in days\r\n   * @param _interestRate - Interest rate in 10 power 6 (If 5%, then value is 0.05 * 10 power 6)\r\n   * @return - Boolean status - True indicating successful completion\r\n   * Access Control: Only Owner\r\n   */\r\n  \r\n  function setInterest(uint16 _tenure, uint256 _interestRate) public onlyOwner() returns(bool ) {\r\n    tenureApyMap[_tenure] = _interestRate;\r\n    return true;\r\n  }\r\n\r\n  /**\r\n   * @dev This function will set value based on paramType (contract fee, mxx penalty fee, max penalty fee, total allocated)\r\n   * @param _parameter - Enum value indicating paramType (0,1,2,3)\r\n   * @param _value - Value to be set\r\n   * @return - Boolean status - True indicating successful completion\r\n   * Access Control: Only Owner\r\n   */\r\n\r\n  function setParamType(paramType _parameter, uint256 _value) public onlyOwner() returns(bool ) {\r\n    if(_parameter == paramType.contractFee) {\r\n      contractFee = _value;\r\n    } else if(_parameter == paramType.minEarlyRedeemFee) {\r\n      minEarlyRedeemFee = _value;\r\n    } else if(_parameter == paramType.maxEarlyRedeemFee) {\r\n      maxEarlyRedeemFee = _value;\r\n    } else if(_parameter == paramType.totalAllocatedMxx) {\r\n      totalAllocatedMxx = _value;\r\n    }\r\n  }\r\n\r\n  /**\r\n   * VALID ERC20 ADDRESS FUNCTIONS\r\n   */\r\n\r\n  /**\r\n   * @dev Adds a valid ERC20 address into the contract\r\n   * @param _ERC20Address - Address of the ERC20 contract\r\n   * @param _mFactor - Mint Factor of the token (value of 1 token in USD * 10 power 18)\r\n   * @return - Boolean status - True indicating successful completion\r\n   * @notice - Access control: Only Owner\r\n   */\r\n  function addValidERC20(address _ERC20Address, uint256 _mFactor) public onlyOwner() returns(bool ) {\r\n\r\n    // Check for existing contracts and validity. If condition fails, revert\r\n    require(_ERC20Address == address(0) || Address.isContract(_ERC20Address),\"Input address is not a contract address\");\r\n    require(ERC20Map[_ERC20Address].noContracts == 0, \"Token has existing contracts\");\r\n    require(!ERC20Map[_ERC20Address].isValid, \"Token is already available in the contract\");\r\n\r\n    // Add token details and return true\r\n    // If _ERC20Address = address(0) then it is ETH else ERC20\r\n    if(_ERC20Address == address(0)) {\r\n\r\n      // Add ETH\r\n      ERC20Map[_ERC20Address] = ERC20Details('ETH', true, 0, _mFactor);\r\n\r\n    } else {\r\n\r\n      // Add ERC20\r\n      ERC20Map[_ERC20Address] = ERC20Details(ERC20(_ERC20Address).symbol(), true, 0, _mFactor);\r\n\r\n    }\r\n    validERC20.push(_ERC20Address);\r\n    return true;\r\n  }\r\n\r\n  /**\r\n   * @dev Adds a list of valid ERC20 addresses into the contract\r\n   * @param _ERC20AddressList - List of addresses of the ERC20 contract\r\n   * @param _mFactorList - List of mint factors of the token\r\n   * @return - Boolean status - True indicating successful completion\r\n   * @notice - The length of _ERC20AddressList and _mFactorList must be the same\r\n   * @notice - Access control: Only Owner\r\n   */\r\n  function addValidERC20List(address[] memory _ERC20AddressList, uint256[] memory _mFactorList) public onlyOwner() returns(bool ) {\r\n\r\n    // Check if the length of 2 input arrays are the same else throw\r\n    require(_ERC20AddressList.length == _mFactorList.length, \"Input arrays must be of same length\");\r\n\r\n    // Enter loop and token details\r\n    for(uint32 i = 0; i < _ERC20AddressList.length; i++) {\r\n      addValidERC20(_ERC20AddressList[i],_mFactorList[i]);\r\n    }\r\n\r\n    // Return true\r\n    return true;\r\n  }\r\n\r\n  /**\r\n   * @dev Removes a valid ERC20 addresses from the contract\r\n   * @param _ERC20Address - Address of the ERC20 contract to be removed\r\n   * @return - Boolean status - True indicating successful completion\r\n   * @notice - Access control: Only Owner\r\n   */\r\n  function removeValidERC20(address _ERC20Address) public onlyOwner() returns(bool ) {\r\n\r\n    // Check if _ERC20Address has existing yield contracts\r\n    require(ERC20Map[_ERC20Address].noContracts == 0, \"Token has existing contracts\");\r\n\r\n    // Get array index\r\n    uint256 index = getIndex(_ERC20Address, validERC20);\r\n\r\n    // Get last valid ERC20 address in the array\r\n    address lastERC20Address = validERC20[validERC20.length - 1];\r\n\r\n    // Assign last address to the index position\r\n    validERC20[index] = lastERC20Address;\r\n\r\n    // Delete last address from the array\r\n    delete validERC20[validERC20.length - 1];\r\n    validERC20.pop();\r\n\r\n    // Delete ERC20 details for the input address\r\n    delete ERC20Map[_ERC20Address];\r\n\r\n    // Return true\r\n    return true;\r\n  }\r\n\r\n  /**\r\n   * @dev Delists ERC20 address to prevent adding new yield contracts with this ERC20 collateral\r\n   * @param _ERC20Address - Address of the ERC20 contract\r\n   * @return - Boolean status - True indicating successful completion\r\n   * @notice - Access control: Only Owner\r\n   */\r\n  function delistValidERC20(address _ERC20Address) public onlyOwner() returns(bool ) {\r\n\r\n    // Check if ERC20 already removed or delisted. If condition fails, revert\r\n    require(ERC20Map[_ERC20Address].isValid, \"Token is either removed or already delisted\");\r\n\r\n    // Delist valid ERC20\r\n    ERC20Map[_ERC20Address].isValid = false;\r\n    return true;\r\n  }\r\n\r\n  /**\r\n   * @dev Undelists ERC20 address to resume adding new yield contracts with this ERC20 collateral\r\n   * @param _ERC20Address - Address of the ERC20 contract\r\n   * @return - Boolean status - True indicating successful completion\r\n   * @notice - Access control: Only Owner\r\n   */\r\n  function undelistERC20(address _ERC20Address) public onlyOwner() returns(bool ) {\r\n\r\n    // Check if address a contract address and if delisted. If condition fails, revert\r\n    require(_ERC20Address == address(0) || Address.isContract(_ERC20Address),\"Input address is not contract address\");\r\n    require(!ERC20Map[_ERC20Address].isValid, \"Token is already enrolled\");\r\n\r\n    // Delist valid ERC20\r\n    ERC20Map[_ERC20Address].isValid = true;\r\n    return true;\r\n  }\r\n\r\n  /**\r\n   * @dev Updates the mint factor of a coin/token\r\n   * @param _ERC20Address - Address of the ERC20 contract or ETH address (address(0))\r\n   * @return - Boolean status - True indicating successful completion\r\n   * @notice - Access control: Only Owner\r\n   */\r\n  function updateMFactor(address _ERC20Address, uint256 _mFactor) public onlyOwner() returns(bool ) {\r\n\r\n    // Check if address a contract address and if in the valid ERC20 array. If condition fails, revert\r\n    require(_ERC20Address == address(0) || Address.isContract(_ERC20Address),\"Input address is not contract address\");\r\n\r\n    // Update mint factor\r\n    ERC20Map[_ERC20Address].mFactor = _mFactor;\r\n    return true;\r\n  }\r\n\r\n  /**\r\n   * @dev Updates the mint factor for list of coin(s)/token(s)\r\n   * @param _ERC20AddressList - List of ERC20 addresses\r\n   * @param _mFactorList - List of mint factors for ERC20 addresses\r\n   * @return - Boolean status - True indicating successful completion\r\n   * @notice - Length of the 2 input arrays must be the same\r\n   * @notice - Access control: Only Owner\r\n   */\r\n  function updateMFactorList(address[] memory _ERC20AddressList, uint256[] memory _mFactorList) public onlyOwner() returns(bool ) {\r\n\r\n    // Length of the 2 input arrays must be the same. If condition fails, revert\r\n    require(_ERC20AddressList.length == _mFactorList.length,\"Input array lengths do not match\");\r\n\r\n    // Enter the loop, update and return true\r\n    for(uint32 i = 0; i < _ERC20AddressList.length; i++) {\r\n      updateMFactor(_ERC20AddressList[i],_mFactorList[i]);\r\n    }\r\n    return true;\r\n  }\r\n\r\n  /**\r\n   * @dev Returns number of valid Tokens/Coins supported\r\n   * @return - Number of valid tokens/coins\r\n   * @notice - Access control: Public\r\n   */\r\n  function getNoOfValidTokens() public view returns(uint256 ) {\r\n    return(validERC20.length);\r\n    \r\n  }\r\n\r\n  /**\r\n   * @dev Returns subset list of valid ERC20 contracts\r\n   * @param _start - Start index to search in the list\r\n   * @param _end - End index to search in the list\r\n   * @return - subsetValidERC20 - List of valid ERC20 addresses subset\r\n   * @notice - Access control: Public\r\n   */\r\n  function getSubsetValidERC20(uint32 _start, uint32 _end) public view returns(address[] memory ) {\r\n\r\n    // Check conditions else fail\r\n    require(_start <= _end, \"Invalid start and end limits\");\r\n\r\n    // If _end higher than length of array, set end index to last element of the array\r\n    if(_end >= validERC20.length) {\r\n      _end = uint32(SafeMath.sub(validERC20.length,1));\r\n    }\r\n\r\n    // Define return array\r\n    uint256 noOfElements = SafeMath.add(SafeMath.sub(_end,_start),1);\r\n    address[] memory subsetValidERC20 = new address[](noOfElements);\r\n\r\n    // Loop in and add elements from validERC20 array\r\n    for(uint32 i = _start; i <= _end; i++) {\r\n      subsetValidERC20[i - _start] = validERC20[i];\r\n    }\r\n\r\n    // Return array\r\n    return(subsetValidERC20);\r\n    \r\n  }\r\n\r\n  /**\r\n   * YIELD CONTRACT FUNCTIONS\r\n   */\r\n\r\n  /**\r\n   * @dev Creates a yield contract\r\n   * @param _ERC20Address - The address of the ERC20 token (address(0) if ETH)\r\n   * @param _collateral - The collateral value of the ERC20 token or ETH\r\n   * @param _tenure - The number of days of the agreement\r\n   * @return - The id of the contract\r\n   * @notice - Collateral to be input - Actual value * (10 power decimals)\r\n   * @notice - For e.g If collateral is 5 USDT (Tether) and decimal is 6, then _collateral is (5 * (10 power 6))\r\n   * Non Reentrant modifier is used to prevent re-entrancy attack\r\n   * @notice - Access control: Public\r\n   */\r\n  \r\n  function createYieldContract(address _ERC20Address, uint256 _collateral, uint16 _tenure) public nonReentrant() payable returns(bytes32 ) {\r\n\r\n    // Check if token/ETH is approved to create contracts\r\n    require(ERC20Map[_ERC20Address].isValid, \"Token/Coin is not approved to create yield contract\");\r\n\r\n    // Create contractId and check if status inactive (enum state 0)\r\n    bytes32 contractId = keccak256(abi.encodePacked(msg.sender, _ERC20Address, now, allContracts.length));\r\n    require(contractMap[contractId].contractStatus == Status.inactive, \"Contract already exists\");\r\n\r\n    // Check if APY (interest rate is not zero for the tenure)\r\n    require(tenureApyMap[_tenure] != 0, \"No interest rate is set for this tenure\");\r\n\r\n    // Get decimal value for collaterals\r\n    uint256 collateralDecimals;\r\n    if(_ERC20Address == address(0)) {\r\n\r\n      // In case of ETH, check to ensure if collateral value match ETH sent\r\n      require(msg.value == _collateral && msg.value > 0,\"Incorrect funds mentioned. ETH not sent properly\");\r\n\r\n      // ETH decimals is 18\r\n      collateralDecimals = 10 ** 18;     \r\n\r\n    } else {\r\n\r\n      // In case of non ETH, check to ensure if msg.value is 0\r\n      require(msg.value == 0,\"Incorrect funds mentioned. ETH value should be value 0 for non ETH collateral\");\r\n      require(_collateral != 0,\"Collateral should not be 0\");\r\n\r\n      collateralDecimals = 10 ** uint256(ERC20(_ERC20Address).decimals());\r\n    }\r\n\r\n    // Calculate MXX to be Minted\r\n    uint256 numerator = SafeMath.mul(SafeMath.mul(SafeMath.mul(SafeMath.mul(_collateral,ERC20Map[_ERC20Address].mFactor),tenureApyMap[_tenure]),10 ** uint256(ERC20(mxxAddress).decimals())),_tenure);\r\n    uint256 denominator = SafeMath.mul(SafeMath.mul(SafeMath.mul(collateralDecimals, ERC20Map[mxxAddress].mFactor),SafeMath.mul(100,10 ** 4)),365);\r\n    uint256 valueToBeMinted = SafeMath.div(numerator,denominator);\r\n\r\n    \r\n\r\n    // Check the MXX to be minted will result in total MXX allocated for creating yield contracts\r\n    require(totalAllocatedMxx >= SafeMath.add(mxxMintedFromContract,valueToBeMinted), \"MXX minted exceeds total allocated MXX for yield contracts\");\r\n\r\n    // Update total MXX minted from yield contracts\r\n    mxxMintedFromContract = SafeMath.add(mxxMintedFromContract , valueToBeMinted);\r\n\r\n    // Calculate MXX to be burnt \r\n    numerator = SafeMath.mul(valueToBeMinted,contractFee);\r\n    denominator = SafeMath.mul(100,10 ** 4);  \r\n    uint256 valueToBeBurnt = SafeMath.div(numerator,denominator);\r\n\r\n    // Get collateral in case of ERC20 tokens, for ETH it is already received via msg.value\r\n    if(_ERC20Address != address(0)) {\r\n      ERC20(_ERC20Address).transferFrom(msg.sender, address(this),_collateral);\r\n    }\r\n\r\n    // Send valueToBeBurnt to contract fee destination\r\n    Multiplier(mxxAddress).transferFrom(msg.sender, burnAddress, valueToBeBurnt);\r\n\r\n    // Create contract\r\n    contractMap[contractId].contractOwner = msg.sender;\r\n    contractMap[contractId].tokenAddress = _ERC20Address;\r\n    contractMap[contractId].collateral = _collateral;\r\n    contractMap[contractId].startTime = now;\r\n    contractMap[contractId].endTime = SafeMath.add(now, SafeMath.mul(_tenure, 1 days));\r\n    contractMap[contractId].interest = tenureApyMap[_tenure];\r\n    contractMap[contractId].tenure = _tenure;\r\n    contractMap[contractId].mxxToBeMinted = valueToBeMinted;\r\n    contractMap[contractId].mxxToBeBurnt = valueToBeBurnt;\r\n    contractMap[contractId].contractStatus = Status.active;\r\n\r\n    // Push to all contracts and user contracts\r\n    allContracts.push(contractId);\r\n\r\n    // Increase number of contracts ERC20 details\r\n    ERC20Map[_ERC20Address].noContracts += 1;\r\n\r\n    // Emit event\r\n    emitContractStatus(contractId);\r\n\r\n    return(contractId);\r\n  }\r\n\r\n  /**\r\n   * @dev Early Redeem a yield contract\r\n   * @param _contractId - The Id of the contract\r\n   * @return - Boolean status - True indicating successful completion\r\n   * Non Reentrant modifier is used to prevent re-entrancy attack\r\n   * @notice - Access control: Public\r\n   */\r\n  \r\n  function earlyRedeemContract(bytes32 _contractId) public nonReentrant() returns(bool ) {\r\n\r\n    // Check if contract is active\r\n    require(contractMap[_contractId].contractStatus == Status.active,\"Contract is not in active state\");\r\n\r\n    // Check if redeemer is the owner\r\n    require(contractMap[_contractId].contractOwner == msg.sender,\"Redeemer is not the owner\");\r\n\r\n    // Check if current time is less than end time but greater than start time\r\n    require(now > contractMap[_contractId].startTime && now < contractMap[_contractId].endTime, \"Contract is beyond its end time. It can be claimed\");\r\n\r\n    // Calculate mxxMintedTillDate\r\n    uint256 numerator = SafeMath.mul(SafeMath.sub(now, contractMap[_contractId].startTime),contractMap[_contractId].mxxToBeMinted);\r\n    uint256 denominator = SafeMath.mul(contractMap[_contractId].tenure, 1 days);\r\n    uint256 mxxMintedTillDate = SafeMath.div(numerator,denominator);\r\n\r\n    // Calculate penaltyPercent\r\n    numerator = SafeMath.mul(SafeMath.sub(maxEarlyRedeemFee, minEarlyRedeemFee),SafeMath.sub(now, contractMap[_contractId].startTime));\r\n    denominator = SafeMath.mul(contractMap[_contractId].tenure, 1 days);\r\n    uint256 penaltyPercent = SafeMath.sub(maxEarlyRedeemFee,SafeMath.div(numerator,denominator));\r\n\r\n    // Calculate penaltyMXXToBurn\r\n    numerator = SafeMath.mul(penaltyPercent,mxxMintedTillDate);\r\n    denominator = SafeMath.mul(100,10 ** 4);\r\n    uint256 penaltyMXXToBurn = SafeMath.div(numerator,denominator);\r\n\r\n    // Calculate mxxToBeSent\r\n    uint256 mxxToBeSent = SafeMath.sub(mxxMintedTillDate,penaltyMXXToBurn);\r\n\r\n    // Return collateral\r\n    if(contractMap[_contractId].tokenAddress == address(0)) {\r\n\r\n      // Send back ETH\r\n      (bool success, ) = contractMap[_contractId].contractOwner.call{value: contractMap[_contractId].collateral}(\"Collateral Return\");\r\n      require(success, \"Transfer failed\");\r\n    } else {\r\n      // Send back ERC20 collateral\r\n      ERC20(contractMap[_contractId].tokenAddress).transfer(contractMap[_contractId].contractOwner, contractMap[_contractId].collateral);      \r\n    }\r\n\r\n    // Return MXX\r\n    Multiplier(mxxAddress).transfer(contractMap[_contractId].contractOwner, mxxToBeSent);\r\n\r\n    // Burn penalty fee\r\n    Multiplier(mxxAddress).transfer(burnAddress, penaltyMXXToBurn);\r\n\r\n    // Updating contract \r\n    contractMap[_contractId].startTime = now;\r\n    contractMap[_contractId].mxxToBeMinted = SafeMath.sub(contractMap[_contractId].mxxToBeMinted,mxxMintedTillDate);\r\n    contractMap[_contractId].mxxToBeBurnt = 0;\r\n    contractMap[_contractId].contractOwner = address(0);\r\n    contractMap[_contractId].contractStatus = Status.openMarket;\r\n\r\n    // Emit Updated status\r\n    emitContractStatus(_contractId);\r\n\r\n    return(true);\r\n  }\r\n\r\n  /**\r\n   * @dev Acquire a yield contract in the open market\r\n   * @param _contractId - The Id of the contract\r\n   * @return - Boolean status - True indicating successful completion\r\n   * Non Reentrant modifier is used to prevent re-entrancy attack\r\n   * @notice - Access control: Public\r\n   */\r\n  \r\n  function acquireYieldContract(bytes32 _contractId) public nonReentrant() payable returns(bool ) {\r\n\r\n    // Check if contract is open\r\n    require(contractMap[_contractId].contractStatus == Status.openMarket,\"Contract is not in open market\");\r\n\r\n    // Check if owner is address(0)\r\n    require(contractMap[_contractId].contractOwner == address(0),\"Contract is owned by someone else\");\r\n\r\n    // Get collateral in case of ERC20 tokens, for ETH it is already received via msg.value\r\n    if(contractMap[_contractId].tokenAddress != address(0)) {\r\n\r\n      // In case of ERC20, ensure no ETH is sent\r\n      require(msg.value == 0, \"ETH should not be sent along with ERC20 collateral\");\r\n      ERC20(contractMap[_contractId].tokenAddress).transferFrom(msg.sender, address(this),contractMap[_contractId].collateral);\r\n    } else {\r\n\r\n      // In case of ETH check if money received equals the collateral else revert\r\n      require(msg.value == contractMap[_contractId].collateral, \"Incorrect funds. Please send ETH of equal collateral value\");\r\n    }\r\n\r\n    // Updating contract \r\n    contractMap[_contractId].startTime = now;\r\n    contractMap[_contractId].contractOwner = msg.sender;\r\n    contractMap[_contractId].contractStatus = Status.active;\r\n\r\n    // Emit Updated status\r\n    emitContractStatus(_contractId);\r\n\r\n    return(true);\r\n  }\r\n\r\n  /**\r\n   * @dev Claim a yield contract in the active market\r\n   * @param _contractId - The Id of the contract\r\n   * @return - Boolean status - True indicating successful completion\r\n   * Non Reentrant modifier is used to prevent re-entrancy attack\r\n   * @notice - Access control: Public\r\n   */\r\n  \r\n  function claimYieldContract(bytes32 _contractId) public nonReentrant() returns(bool ) {\r\n\r\n    // Check if contract is active\r\n    require(contractMap[_contractId].contractStatus == Status.active,\"Contract is not in active state\");\r\n\r\n    // Check if owner and msg.sender are the same\r\n    require(contractMap[_contractId].contractOwner == msg.sender,\"Contract is owned by someone else\");\r\n\r\n    // Check if current time is greater than contract end time\r\n    require(now >= contractMap[_contractId].endTime, \"Contract cannot be claimed now. It can be early redeemed\");\r\n\r\n    // Return collateral\r\n    if(contractMap[_contractId].tokenAddress == address(0)) {\r\n\r\n      // Send back ETH\r\n      (bool success, ) = contractMap[_contractId].contractOwner.call{value: contractMap[_contractId].collateral}(\"Collateral Return\");\r\n      require(success, \"Transfer failed\");\r\n    } else {\r\n      // Send back ERC20 collateral\r\n      ERC20(contractMap[_contractId].tokenAddress).transfer(contractMap[_contractId].contractOwner, contractMap[_contractId].collateral);      \r\n    }\r\n\r\n    // Return minted MXX\r\n    Multiplier(mxxAddress).transfer(contractMap[_contractId].contractOwner, contractMap[_contractId].mxxToBeMinted);\r\n\r\n\r\n    // Updating contract \r\n    contractMap[_contractId].contractStatus = Status.claimed;\r\n\r\n    // Reduce no of contracts in ERC20 details\r\n    ERC20Map[contractMap[_contractId].tokenAddress].noContracts -= 1;\r\n\r\n    // Emit Updated status\r\n    emitContractStatus(_contractId);\r\n\r\n    return(true);\r\n  }\r\n\r\n  /**\r\n   * @dev This function will subset of yield contract\r\n   * @param _start - Start of the list\r\n   * @param _end - End of the list\r\n   * @return - List of subset yield contract\r\n   * Access Control: Public\r\n   */\r\n  \r\n  function getSubsetYieldContracts(uint32 _start, uint32 _end) public view returns(bytes32[] memory ) {\r\n\r\n    // Check conditions else fail\r\n    require(_start <= _end, \"Invalid start and end limits\");\r\n\r\n    // If _end higher than length of array, set end index to last element of the array\r\n    if(_end >= allContracts.length) {\r\n      _end = uint32(SafeMath.sub(allContracts.length,1));\r\n    }\r\n\r\n    // Define return array\r\n    uint256 noOfElements = SafeMath.add(SafeMath.sub(_end,_start),1);\r\n    bytes32[] memory subsetYieldContracts = new bytes32[](noOfElements);\r\n\r\n    // Loop in and add elements from allContracts array\r\n    for(uint32 i = _start; i <= _end; i++) {\r\n      subsetYieldContracts[i - _start] = allContracts[i];\r\n    }\r\n\r\n    return subsetYieldContracts;\r\n\r\n  } \r\n\r\n  /**\r\n   * @dev This function will withdraw MXX back to the owner\r\n   * @param _amount - Amount of MXX need to withdraw\r\n   * @return - Boolean status indicating successful completion\r\n   * Access Control: Only Owner\r\n   */\r\n  \r\n  function withdrawMXX(uint256 _amount) public onlyOwner() nonReentrant() returns(bool ) {\r\n    Multiplier(mxxAddress).transfer(msg.sender, _amount);\r\n    return true;\r\n  }\r\n}",
  "sourcePath": "/Users/dev/PROJECT/Solidity-Mxx/Final Delivery/contracts/yieldContract.sol",
  "compiler": {
    "name": "solc",
    "version": "0.6.12+commit.27d51765.Emscripten.clang"
  },
  "schemaVersion": "3.2.3",
  "updatedAt": "2020-08-13T09:00:04.065Z",
  "devdoc": {
    "events": {
      "yieldContractStatus(address,address,uint256,uint256,uint256,uint256,uint16,uint256,uint256,string)": {
        "details": "- An event to be emitted when a contract is created/updated"
      }
    },
    "kind": "dev",
    "methods": {
      "acquireYieldContract(bytes32)": {
        "details": "Acquire a yield contract in the open market",
        "params": {
          "_contractId": "- The Id of the contract"
        },
        "returns": {
          "_0": "- Boolean status - True indicating successful completion Non Reentrant modifier is used to prevent re-entrancy attack"
        }
      },
      "addValidERC20(address,uint256)": {
        "details": "Adds a valid ERC20 address into the contract",
        "params": {
          "_ERC20Address": "- Address of the ERC20 contract",
          "_mFactor": "- Mint Factor of the token (value of 1 token in USD * 10 power 18)"
        },
        "returns": {
          "_0": "- Boolean status - True indicating successful completion"
        }
      },
      "addValidERC20List(address[],uint256[])": {
        "details": "Adds a list of valid ERC20 addresses into the contract",
        "params": {
          "_ERC20AddressList": "- List of addresses of the ERC20 contract",
          "_mFactorList": "- List of mint factors of the token"
        },
        "returns": {
          "_0": "- Boolean status - True indicating successful completion"
        }
      },
      "claimYieldContract(bytes32)": {
        "details": "Claim a yield contract in the active market",
        "params": {
          "_contractId": "- The Id of the contract"
        },
        "returns": {
          "_0": "- Boolean status - True indicating successful completion Non Reentrant modifier is used to prevent re-entrancy attack"
        }
      },
      "createYieldContract(address,uint256,uint16)": {
        "details": "Creates a yield contract",
        "params": {
          "_ERC20Address": "- The address of the ERC20 token (address(0) if ETH)",
          "_collateral": "- The collateral value of the ERC20 token or ETH",
          "_tenure": "- The number of days of the agreement"
        },
        "returns": {
          "_0": "- The id of the contract"
        }
      },
      "delistValidERC20(address)": {
        "details": "Delists ERC20 address to prevent adding new yield contracts with this ERC20 collateral",
        "params": {
          "_ERC20Address": "- Address of the ERC20 contract"
        },
        "returns": {
          "_0": "- Boolean status - True indicating successful completion"
        }
      },
      "earlyRedeemContract(bytes32)": {
        "details": "Early Redeem a yield contract",
        "params": {
          "_contractId": "- The Id of the contract"
        },
        "returns": {
          "_0": "- Boolean status - True indicating successful completion Non Reentrant modifier is used to prevent re-entrancy attack"
        }
      },
      "getNoOfValidTokens()": {
        "details": "Returns number of valid Tokens/Coins supported",
        "returns": {
          "_0": "- Number of valid tokens/coins"
        }
      },
      "getSubsetValidERC20(uint32,uint32)": {
        "details": "Returns subset list of valid ERC20 contracts",
        "params": {
          "_end": "- End index to search in the list",
          "_start": "- Start index to search in the list"
        },
        "returns": {
          "_0": "- subsetValidERC20 - List of valid ERC20 addresses subset"
        }
      },
      "getSubsetYieldContracts(uint32,uint32)": {
        "details": "This function will subset of yield contract",
        "params": {
          "_end": "- End of the list",
          "_start": "- Start of the list"
        },
        "returns": {
          "_0": "- List of subset yield contract Access Control: Public"
        }
      },
      "owner()": {
        "details": "Returns the address of the current owner."
      },
      "removeValidERC20(address)": {
        "details": "Removes a valid ERC20 addresses from the contract",
        "params": {
          "_ERC20Address": "- Address of the ERC20 contract to be removed"
        },
        "returns": {
          "_0": "- Boolean status - True indicating successful completion"
        }
      },
      "renounceOwnership()": {
        "details": "Leaves the contract without owner. It will not be possible to call `onlyOwner` functions anymore. Can only be called by the current owner. NOTE: Renouncing ownership will leave the contract without an owner, thereby removing any functionality that is only available to the owner."
      },
      "setInterest(uint16,uint256)": {
        "details": "This function will set interest rate for the tenure in days",
        "params": {
          "_interestRate": "- Interest rate in 10 power 6 (If 5%, then value is 0.05 * 10 power 6)",
          "_tenure": "- Tenure of the agreement in days"
        },
        "returns": {
          "_0": "- Boolean status - True indicating successful completion Access Control: Only Owner"
        }
      },
      "setParamType(uint8,uint256)": {
        "details": "This function will set value based on paramType (contract fee, mxx penalty fee, max penalty fee, total allocated)",
        "params": {
          "_parameter": "- Enum value indicating paramType (0,1,2,3)",
          "_value": "- Value to be set"
        },
        "returns": {
          "_0": "- Boolean status - True indicating successful completion Access Control: Only Owner"
        }
      },
      "transferOwnership(address)": {
        "details": "Transfers ownership of the contract to a new account (`newOwner`). Can only be called by the current owner."
      },
      "undelistERC20(address)": {
        "details": "Undelists ERC20 address to resume adding new yield contracts with this ERC20 collateral",
        "params": {
          "_ERC20Address": "- Address of the ERC20 contract"
        },
        "returns": {
          "_0": "- Boolean status - True indicating successful completion"
        }
      },
      "updateMFactor(address,uint256)": {
        "details": "Updates the mint factor of a coin/token",
        "params": {
          "_ERC20Address": "- Address of the ERC20 contract or ETH address (address(0))"
        },
        "returns": {
          "_0": "- Boolean status - True indicating successful completion"
        }
      },
      "updateMFactorList(address[],uint256[])": {
        "details": "Updates the mint factor for list of coin(s)/token(s)",
        "params": {
          "_ERC20AddressList": "- List of ERC20 addresses",
          "_mFactorList": "- List of mint factors for ERC20 addresses"
        },
        "returns": {
          "_0": "- Boolean status - True indicating successful completion"
        }
      },
      "withdrawMXX(uint256)": {
        "details": "This function will withdraw MXX back to the owner",
        "params": {
          "_amount": "- Amount of MXX need to withdraw"
        },
        "returns": {
          "_0": "- Boolean status indicating successful completion Access Control: Only Owner"
        }
      }
    },
    "stateVariables": {
      "ERC20Map": {
        "details": "- A mapping to map ERC20 addresses to its details"
      },
      "allContracts": {
        "details": "- Array to store user created yield contract IDs "
      },
      "burnAddress": {
        "details": "- Address where MXX will be sent to burn"
      },
      "contractFee": {
        "details": "- Variable to store contract fee If 10% then value is 0.1 * 10 power 6"
      },
      "contractMap": {
        "details": "- A mapping to map contract IDs to their details"
      },
      "minEarlyRedeemFee": {
        "details": "- Variables to store % of penalty / redeem fee fees If min penalty / redeem fee is 5% then value is 0.05 * 10 power 6 If max penalty / redeem fee is 50% then value is 0.5 * 10 power 6"
      },
      "mxxAddress": {
        "details": "- Variable to store MXX ERC20 token address"
      },
      "mxxMintedFromContract": {
        "details": "- Variable to total MXX minted from yield contracts"
      },
      "tenureApyMap": {
        "details": "- A mapping to map tenure in days to apy (Annual Percentage Yield aka interest rate) Percent rate is multiplied by 10 power 6. (For e.g. if 5% then value is 0.05 * 10 power 6)"
      },
      "totalAllocatedMxx": {
        "details": "- Variable to store total allocated MXX for yield contracts"
      },
      "validERC20": {
        "details": "- Array to store valid ERC20 addresses "
      }
    },
    "version": 1
  },
  "userdoc": {
    "events": {
      "yieldContractStatus(address,address,uint256,uint256,uint256,uint256,uint16,uint256,uint256,string)": {
        "notice": "contractOwner - The owner of the yield contracttokenAddress - ERC20 contract address (if ETH then address(0))collateral - Value of collateral (multiplied by 10 power 18 to handle decimals)startTime - Start time of the yield contract (in unix timestamp)endTime - End time of the yield contract (in unix timestamp)interest - APY or Annual Percentage Yield (returned from tenureApyMap)tenure - The agreement tenure in daysmxxToBeMinted - The final MXX token value to be returned to the contract ownermxxToBeBurnt - The MXX value to be burnt from user's account when creating a contractcontractStatus - The status of a contract (can be inactive/active/openMarket/Claimed)"
      }
    },
    "kind": "user",
    "methods": {
      "acquireYieldContract(bytes32)": {
        "notice": "- Access control: Public"
      },
      "addValidERC20(address,uint256)": {
        "notice": "- Access control: Only Owner"
      },
      "addValidERC20List(address[],uint256[])": {
        "notice": "- The length of _ERC20AddressList and _mFactorList must be the same- Access control: Only Owner"
      },
      "claimYieldContract(bytes32)": {
        "notice": "- Access control: Public"
      },
      "constructor": "CONSTRUCTOR FUNCTION",
      "createYieldContract(address,uint256,uint16)": {
        "notice": "- Collateral to be input - Actual value * (10 power decimals)- For e.g If collateral is 5 USDT (Tether) and decimal is 6, then _collateral is (5 * (10 power 6)) Non Reentrant modifier is used to prevent re-entrancy attack- Access control: Public"
      },
      "delistValidERC20(address)": {
        "notice": "- Access control: Only Owner"
      },
      "earlyRedeemContract(bytes32)": {
        "notice": "- Access control: Public"
      },
      "getNoOfValidTokens()": {
        "notice": "- Access control: Public"
      },
      "getSubsetValidERC20(uint32,uint32)": {
        "notice": "- Access control: Public"
      },
      "removeValidERC20(address)": {
        "notice": "- Access control: Only Owner"
      },
      "undelistERC20(address)": {
        "notice": "- Access control: Only Owner"
      },
      "updateMFactor(address,uint256)": {
        "notice": "- Access control: Only Owner"
      },
      "updateMFactorList(address[],uint256[])": {
        "notice": "- Length of the 2 input arrays must be the same- Access control: Only Owner"
      }
    },
    "notice": "TO NOTEStore collateral and provide interest MXX or burn MXXInterest (contractFee, penaltyFee etc) is always represented 10 power 6 times the actual valueNote that only 4 decimal precision is allowed for interestIf interest is 5%, then value to input is 0.05 * 10 pow 6 = 5000mFactor or mintFactor is represented 10 power 18 times the actual value.If value of 1 ETH is 380 USD, then mFactor of ETH is (380 * (10 power 18))Collateral should always be in its lowest denomination (based on the coin or Token)If collateral is 6 USDT, then value is 6 * (10 power 6) as USDT supports 6 decimalsstartTime and endTime are represented in Unix timetenure for contract is represented in days (90, 180, 270) etcmxxToBeMinted or mxxToBeMinted is always in its lowest denomination (8 decimals)For e.g if mxxToBeMinted = 6 MXX, then actual value is 6 * (10 power 8)",
    "version": 1
  }
}